:100000000C9408100C9430100C9430100C94301098
:100010000C9430100C9430100C9430100C94301060
:100020000C9430100C9430100C94ED140C94CC2ED5
:100030000C9460310C94F92E0C9430100C944C15E7
:100040000C94DB140C9430100C9430100C94301081
:100050000C9430100C9430100C9430100C94301020
:100060000C94E3310C9491150C945E2F0C94233274
:100070000C9430100C9430100C9430100C94301000
:100080000C9430100C9430100C9430101A171E176A
:10009000E316E916EF16EF16EF16121716171A17D2
:1000A0001E172B172B1722170C2BFB2AF52AFD2ABC
:1000B000012B052BF82A092B0F2B4C334E335133D0
:1000C00056336733763384338E339E33AE33B33354
:1000D000C933CC33D033D233D433D933DD33E833DF
:1000E000EC33F433FB33FF33013405340734093484
:1000F0000B340F34133418341D34223427342C3489
:1001000036373637363736376237593759375937F2
:10011000593759375937593746374B374B375C457D
:100120006B451546A8472F48B146844A9D4A7549F4
:10013000AB48B3480949B45674567F568E56945608
:1001400098569D56A15DB05DC15DD75DDE5DE55DF4
:10015000F05D075E1F5E175F425F4B5F545F605F3D
:10016000815F915FBB5F08601460526075608C6056
:100170009860A460B060A363926D2266AD6AAD66BC
:10018000926D926D7A691A6C926D926D5D65B36332
:10019000AD67204F6C642056657273696F6E2045A1
:1001A0004550524F4D202020434845434B20534556
:1001B0005454494E47532F43414C494200416C61CE
:1001C000726D732044697361626C656400454550CB
:1001D000524F4D206C6F77206D656D004C4F414440
:1001E000494E47006D537461636B206F666C6F7787
:1001F000006D537461636B2075666C6F77004D45BD
:10020000535341474500707265737320616E7920C6
:100210004B657900537769746368205761726E6922
:100220006E6700506C65617365205265736574205C
:100230005377697463686573005468726F74746C83
:1002400065206E6F742069646C6500526573657417
:10025000207468726F74746C6500507265737320DB
:10026000616E79206B657920746F20736B69700003
:100270004F46464F4E20544873544825002D2D2D8F
:10028000002D2D2D2D000000642810070301000013
:100290000000010101020202020101030020414CA1
:1002A0004552540000010203000201030301020051
:1002B000030201000452756420456C652054687285
:1002C0002041696C20004F4E20004F4646000354E9
:1002D0004852525544454C454944304944314944BB
:1002E0003241494C47454154524E4C31204C32200A
:1002F0004C33204C34204C35204C36204C37204C8D
:1003000038204C39204C41204C42204C4320001BCB
:100310001E272D36394B4E636C7278878D939CB1B6
:10032000B4C6C9D2D8E1E453706C617368008040F0
:1003300000000000000000000000000000000000BD
:1003400000000000000000000000000000000000AD
:10035000000000000000000000000000000000009D
:10036000000000000000000000000000000000008D
:10037000000000000000000000000080C0E0E0F08D
:10038000F8F8FCFCFCF8F8F8F040000000000080F1
:10039000808000000000000000000000000000005D
:1003A000000000000080C0C0E0E0E0F0F0F0E0C03D
:1003B0000000000000C0F8FFFF9F878383838383D2
:1003C00083838383838383838383838383838383FD
:1003D0008303838083838383838383838383838370
:1003E0008383838383838383838383C3E3733F1FF5
:1003F0000000000080E0F0F8FCFEFFFFFFFF7F3F01
:100400001F1F0F0783C3E1E1E0E0C0000E1F3F7F25
:100410007FFFF3E0E080000000000000000000002B
:1004200080F0FCFEFFFFFFFF7F3F0F030101010093
:10043000000080F0FEFFFFC7C1C1C1C1C1C1C1C181
:10044000C1C1C1C1C1C1C1C1C1C1C1C1C1C101C15C
:10045000F0FEFF3F0F070F0D0D0D1D191919193172
:1004600031313171616161E1C1C1C1810000008040
:10047000E0F8FCFFFFFFFF2F170F038180C0E0F0C3
:10048000F8FCFEFFFFFFFFFFFF7F01000000000000
:10049000000001010307070E1E1C3870E0F0F8FE93
:1004A000FFFF7F1F0F03000100000000000000009D
:1004B000000000000000000000000000000000003C
:1004C000000000000000000000000000000000002C
:1004D000000000000000000000000000000000001C
:1004E00000000000000000000000000000007EFF8F
:1004F000FFFFFFFFFFFBF8FCFCFEFF7F3F1F0F0726
:10050000C3FFFFFFFFFFFF7F0700000000000000A8
:1005100000000000000000C0E0F8FEFFFF7F1F0F9A
:100520001F3D7CF8F8F0E0800000000000000000B3
:1005300000000000000000000000000000000000BB
:1005400000000000000000000000000000000000AB
:10055000000000000000000000000000000000009B
:10056000000000000000000000000000000000008B
:100570000101010101030707070301000000E0FC7E
:10058000FFFFFFFFFF1F030000000000000000004E
:100590000000C0F078DE2713090E070300000000FA
:1005A0000000000001030F7FFFFC7878F8000000D6
:1005B000000000000000000080808080808080803B
:1005C00080008080008080000000000000008080AB
:1005D000808080808080808080808080808080801B
:1005E000000000000000000000000000000000000B
:1005F000000000000000000000000080F0FEFFFF8F
:10060000FFFF3F0F010000000000000000C0E038C5
:100610001E0F0300010000000000000000000000A9
:1006200000000000000000000000000303010000C3
:1006300000000000000000000E0E02020202020391
:1006400003000F0F000F0F080808080808080F0F15
:1006500008080808080F0F000000000F0F00000036
:10066000000000000000000000000000000000008A
:10067000000000000000000000C0F8BFFFFFFF1FE7
:100680007F010000000000000000F0FCFF7F7830D8
:10069000000000000000000000000000000000005A
:1006A000000000000000000000000000000000004A
:1006B000000000000000000000000000000000003A
:1006C000000000000000000000000000000000002A
:1006D000000000000000000000000000000000001A
:1006E000000000000000000000000000000000000A
:1006F00000000000000000301C070E0F0701000082
:1007000000000000000000000000000000000000E9
:1007100000000000000000000000000000000000D9
:1007200000000000000000000000000000000000C9
:1007300000564552533A2056312E3230342D6D61D9
:1007400072656B1F444154453A2030332E30352EAC
:10075000323031351F54494D453A2031383A323024
:100760003A30351F2053564E3A20657239782D7233
:10077000311F204D4F443A20202020200067656E15
:100780007772697465206572726F720045455052C8
:100790004F4D20466F726D617474696E67004261DF
:1007A0006420454570726F6D204461746100434858
:1007B00045434B204D4F44454C2054494D455253E1
:1007C00000434845434B204D49582F445220534F36
:1007D0005552434553004D4F44454C202020202086
:1007E000004D45202020202020202000454550524B
:1007F0004F4D206F766572666C6F7700E2AEA1A6F2
:10080000A4A2C02F25AF00000000000000000000DF
:1008100000000000000000000000000000000000D8
:10082000000000000000333B1F0F00000000C0C0AC
:10083000C0C0C0C0C0C0C0C00000000000000000B8
:100840000000000000000000000000000000183C54
:100850003C180000000000000080C0E070381C0C54
:100860000C0E07030100000000000000FCFE87C31F
:10087000E377FEFC00000F1F3B3130381F0F0000F4
:100880000C0EFFFF00000000000030303F3F303012
:10089000000000000C0E0783C3E77E3C00003C3ED6
:1008A00037333130303000000303C3C3C3E7FE3CAD
:1008B00000003030303030391F0F0000C0E0703899
:1008C0001C0EFFFF00000303030303033F3F000070
:1008D0003F3F33333373E3C300000C1C38303038F0
:1008E0001F0F0000FCFEC7C3C3C78E0C00000F1F04
:1008F000383030391F0F00000303C3E3733B1F0F71
:10090000000000003F3F0000000000003CFEE7C385
:10091000C3E7FE3C00000F1F393030391F0F0000C5
:100920003C7EE7C3C3E7FEFC0000000030381C0E2D
:1009300007030000183C3C18000000000000060FF0
:100940000F0600000000F0F8DCCEC7C7CEDCF8F0E0
:100950003F3F0000000000003F3FFFFFC3C3C3C391
:10096000C3E7FE3C3F3F3030303030391F0FFCFED4
:100970000703030303070E0C0F1F383030303038E5
:100980001C0CFFFF030303070E1CF8F03F3F303041
:1009900030381C0E0703FFFFC3C3C3C3C3C3030325
:1009A0003F3F3030303030303030FFFFC3C3C3C33F
:1009B000C3C303033F3F0000000000000000FCFE33
:1009C0000703C3C3C3C7CECC0F1F3830303030301D
:1009D0003F3FFFFFC0C0C0C0C0C0FFFF3F3F00009F
:1009E000000000003F3F00000303FFFF030300007F
:1009F000000030303F3F30300000000000000303B3
:100A0000FFFF03030C1C383030381F0F0000FFFFBE
:100A1000C0E0F0381C0E07033F3F000103070E1C27
:100A20003830FFFF00000000000000003F3F303082
:100A3000303030303030FFFF0E1CF8F81C0EFFFF56
:100A40003F3F0000000000003F3FFFFF3870E0C064
:100A50008000FFFF3F3F0000000103033F3FFCFE1B
:100A6000070303030307FEFC0F1F38303030303814
:100A70001F0FFFFFC3C3C3C3C3E77E3C3F3F00005C
:100A8000000000000000FCFE070303030307FEFC58
:100A90000F1F383033371E1C3F33FFFFC3C3C3C3A0
:100AA000C3E77E3C3F3F000003070E1C38303C7E0E
:100AB000E7C3C3C3C3C78E0C0C1C38303030303989
:100AC0001F0F03030303FFFF0303030300000000E2
:100AD0003F3F00000000FFFF000000000000FFFF9C
:100AE0000F1F3830303030381F0FFFFF000000007C
:100AF0000000FFFF03070E1C38381C0E0703FFFF22
:100B0000000000000000FFFF0F1F38381F1F38389B
:100B10001F0F0F1F38F0E0E0F0381F0F3C3E0703B7
:100B2000010103073E3C3F7FE0C08080C0E07F3F83
:100B3000000000013F3F0100000003030383C3E303
:100B4000733B1F0F3C3E37333130303030300000C4
:100B50000000000000000000303030303030303015
:100B600030300000303030303070E0C00C1E3F3389
:100B7000333333333F3FFFFFC0E070303070E0C0AD
:100B80003F3F3030303030381F0FC0E070303030F1
:100B9000303000000F1F3830303030381C0CC0E0CF
:100BA00070303070E0C0FFFF0F1F38303030303011
:100BB0003F3FC0E0703030303070E0C00F1F3B333B
:100BC000333333330303C0C0FCFEC7C303070E0C2B
:100BD00000003F3F000000000000F0F89C0C0C0CEF
:100BE0000C0CFCFC000133333333333B1F0FFFFF8E
:100BF000C0E070303070E0C03F3F000000000000F7
:100C00003F3F00003030F3F30000000000003030C0
:100C10003F3F30300000000000003030F3F30000B0
:100C20000C1C383030381F0F0000FFFF0080C0E080
:100C3000703000003F3F03070F1C383000000000F9
:100C40000303FFFF00000000000030303F3F303062
:100C50000000F0F03070E0E07070E0C03F3F000056
:100C6000030300003F3FF0F0C0E070303070E0C0A0
:100C70003F3F0000000000003F3FC0E070303030D8
:100C80003070E0C00F1F3830303030381F0FF0F0B8
:100C90003030303030F0E0C03F3F03030303030344
:100CA0000100C0E0F0303030E0C0F0F0000103039C
:100CB000030303033F3FF0F0C0E070303070E0C04A
:100CC0003F3F0000000000000000C0E0F030303086
:100CD00030300000303133333333333F1E0C30308B
:100CE000FFFF30300000000000000F1F38303038A8
:100CF0001C0CF0F0000000000000F0F00F1F383076
:100D000030381C0C3F3FF0F0000000000000F0F015
:100D100003070E1C38381C0E0703F0F0000000001B
:100D20000000F0F00F1F38381C1C38381F0F3070CF
:100D3000E0C08080C0E0703030381C0F07070F1C07
:100D40003830F0F0800000000000F0F00001333394
:100D50003333333B1F0F3030303030B0F0F0703071
:100D600030383C3E37333130303000000000000076
:100D700000006F000007000700147F147F14242A6E
:100D80007F2A122313086462364955225000050356
:100D90000000001C2241000041221C0014083E08F3
:100DA0001408083E08080050300000080808080829
:100DB00000606000002010080402003E49453E002B
:100DC00000427F40006251494600414949360018BF
:100DD00014127F0027454539003E49493200017908
:100DE00005030036494936000649291E00003636FB
:100DF0000000005636000008142241141414141484
:100E00004122140800020151090600060909067E64
:100E10000909097E7F494949363E414141227F41C6
:100E200041221C7F494949417F090909013E414945
:100E3000497A7F0808087F00417F41002040413FF8
:100E4000017F081422417F404040407F020C027F16
:100E50007F0408107F3E4141413E7F090909063E5B
:100E60004151215E7F09192946264949493201012C
:100E70007F01013F4040403F1F2040201F3F403046
:100E8000403F63140814630708700807615149451F
:100E900043007F41410002040810200041417F00CF
:100EA00004020102044040404040080408100820A9
:100EB000545454787F484444383844444420384497
:100EC00044487F3854545418087E0901020C525289
:100ED000523E7F0804047800447D40002040443D99
:100EE000007F1028440000417F40007C04180478F3
:100EF0007C0804047838444444387C1414140808EA
:100F00001414187C7C080404084854545420043FEA
:100F10004440203C4040207C1C2040201C3C402081
:100F2000403C44281028440C5050503C4464544CDD
:100F300044000836410000007F00000041360800F0
:100F40000808221C08081C220808010204081020B6
:100F5000408040800804201002019CCE003264E2F0
:100F6000F1003264645A505A6450463C46649C1402
:100F70001E465A536572766F205465737400477924
:100F8000726F2053657475700048656C69205365F5
:100F900074757000456C65766F6E5C44656C746149
:100FA00000562D5461696C00537469636B79205449
:100FB0002D43757400542D4375740053696D706C26
:100FC0006520342D434800BB0FB50FA80FA10F9427
:100FD0000F890F7E0F730F0000891112239B32249B
:100FE00046AD573665BF74488CC19D5AAFD3BE6CB1
:100FF000CAE5DB7EE9F7F88110080193331A22A5D0
:10100000562C47B7753E64C99C408DDBBF52AEED90
:10101000DA64CBFFF976E802218B301002991326AF
:1010200067AF763444BD554AADC3BC588ED19F6E70
:10103000EBE7FA7CC8F5D983310A2091121803A78F
:10104000772E66B5543C45CBBD42ACD99E508FEF50
:10105000FB66EAFDD874C904428D5316619F702067
:1010600004A9153227BB364CCEC5DF5EEDD7FC6830
:1010700088E1997AABF3BA85520C4397711E60A14F
:10108000142805B3373A26CDDE44CFDFFD56ECE910
:10109000986089FBBB72AA06638F7214409D51222F
:1010A00025AB343006B9174EEFC7FE5CCCD5DD6AF0
:1010B000A9E3B8788AF19B87730E6295501C41A30F
:1010C000352A24B1163807CFFF46EEDDDC54CDEBD0
:1010D000B962A8F99A708B088481951AA793B62CE7
:1010E000C2A5D33EE1B7F04008C919522BDB3A64E0
:1010F0004EED5F766DFF7C899400859BB712A6AD9F
:10110000D224C3BFF136E0C1184809D33B5A2AE5BF
:101110005E6C4FF77D7E6C0AA583B4188691972E7E
:10112000E3A7F23CC0B5D14229CB38500AD91B669F
:101130006FEF7E744CFD5D8BB502A499961087AF5E
:10114000F326E2BDD034C1C3394A28D11A580BE77F
:101150007F6E6EF55C7C4D0CC685D71EE597F42836
:1011600080A1913AA3B3B2444ACD5B5669DF78605F
:101170000CE91D722FFB3E8DD604C79FF516E4A91E
:10118000902081BBB332A2C55A4C4BD7795E68E13F
:101190001C680DF33F7A2E0EE787F61CC495D52AFE
:1011A000A1A3B03882B193466BCF7A5448DD59621F
:1011B0002DEB3C700EF91F8FF706E69DD414C5ABDE
:1011C000B122A0B9923083C77B4E6AD5585C49E3FF
:1011D0003D6A2CF11E780F064F4E202020204F46EE
:1011E00046202020424F54482020313553656373F8
:1011F0003330536563733630536563735661726978
:10120000626C0056530007203820536563733132F7
:101210002053656373313620536563730001534176
:101220005658004E756D62657220566F6963652071
:1012300053770053616665747920537769746368E6
:10124000657300434F5059205452494D205B4D4522
:101250004E555D000D4F6E004C4F474943414C20A9
:101260005357495443484553000A436F756E7420E1
:10127000446F776E436F756E742055702020005454
:10128000696D65721F54726967676572411F547298
:101290006967676572421F54696D65721F52657395
:1012A0006574205377697463680003416D654A6112
:1012B0007045757200034431364438204C5250005A
:1012C00020547970651F20436F756E7472791F42C8
:1012D000696E641F52616E676500094C50342F4C73
:1012E0005035202044534D326F6E6C792044534D5D
:1012F000322F44534D580044534D205479706500AB
:1013000003504F534E454700536869667420536538
:101310006C0050504D2046724C656E0D6D536563E8
:10132000000B52784E756D00043443482036434814
:101330002038434820313043483132434831344328
:10134000483136434800137553000650504D202055
:101350002050585820202044534D32202050504DCA
:1013600031362050504D53494D003173742043683D
:10137000616E1F50726F746F00024578706F1F1F8F
:10138000015765696768741F1F44725377311F44A2
:1013900072537732000704445220486920044452B3
:1013A000204D6964044452204C6F7700042D2D2D8C
:1013B0002D31323020313230583134302039302024
:1013C0002000537761736820547970651F436F6CF8
:1013D0006C6563746976651F537761736820526921
:1013E0006E671F454C4520446972656374696F6E72
:1013F0001F41494C20446972656374696F6E1F43D5
:101400004F4C20446972656374696F6E0052455495
:1014100041313233005472696D2053771F48692E71
:1014200052657320536C6F772F44656C61791F424E
:1014300065657020436E7400064578702020204555
:101440007846696E6546696E6520204D65646975EC
:101450006D436F6172736500032D2D2D5031205047
:101460003220503320475634475635475636475674
:101470003700566F6C756D6520436F6E74726F6CBC
:101480001F452E204C696D6974731F547261696E1B
:1014900065721F542D5472696D1F542D4578706FFD
:1014A0001F5472696D20496E6300052D313030255F
:1014B00020202030250044656661756C74205377C8
:1014C0001F437573746F6D53746B4E616D65731F3D
:1014D0004175746F204C696D6974731F5468726F25
:1014E00074746C652044656661756C7400566F6930
:1014F000636520496E646578114D454E55009B1B10
:101500003E1D491D361D301D291D901B1E1D131D1E
:101510008A1B871EE41B0A1D564100566F696365CE
:1015200020416C61726D73004D454E55204C4F4EFD
:10153000470044656C65746500566F6963652046B5
:10154000696C6500062D2D2D2D2D2D4E756D626556
:101550007220417564696F0004506C61794D757437
:101560006500064E6F202020204265666F7265413F
:10157000667465722000072D2D2D2D2D2D2D4861AF
:101580007074696331486170746963324861707462
:10159000696333000776603D76616C20763D766145
:1015A0006C20200007280D2900506C617920536FB2
:1015B000757263651F4F6E206E6F2054656C656D8C
:1015C000657472791F46696C655479706500536F54
:1015D000757263651F46756E6374696F6E1F566121
:1015E0006C75651F5377697463681F526174651F5A
:1015F00048617074696300566F69636520416C616E
:10160000726D00034D4F564520535449434B532FA1
:10161000504F54530005534554204D4944504F49B1
:101620004E5400035B4D454E555D20544F2053549E
:101630004152540042616E644761700043616C0026
:101640004D756C7469706C69657200036F66662015
:101650002B3D203A3D00036D6F64650A25207372AF
:1016600063202073770007536C6176650012424750
:1016700000414E41005472696D2D202B00204C65B5
:1016800066741F52696768741F0355701F20446F8A
:10169000776E1F20457869741F204D656E75004474
:1016A00049414700537469636B5363726F6C6C00FC
:1016B000506F745363726F6C6C0053706C6173681D
:1016C000204E616D650053706C61736820736372A6
:1016D00065656E00416C61726D205761726E696E56
:1016E00067004D656D6F7279205761726E696E6724
:1016F000005468726F74746C65205761726E696E05
:10170000670042617474657279207761726E696EE8
:10171000671F496E616374697669747920616C61D1
:10172000726D136D00014368616E6E656C204F72BF
:101730006465721F4D6F646500456E61626C652063
:1017400050504D53494D005468726F74746C65204D
:10175000726576657273650043726F737354726954
:101760006D002048617074696320537472656E6700
:101770007468000A426565706572202020205069F7
:1017800053706B72202020204265657072566F691D
:101790006365506953706B566F6963654D6567612A
:1017A000536F756E642000065175696574204E6F25
:1017B0004B6579207853686F727453686F72742028
:1017C0004E6F726D20204C6F6E672020784C6F6ECC
:1017D000672000566F6C756D651F42656570657298
:1017E0001F536F756E64204D6F64651F20537065C5
:1017F000616B657220506974636800466C61736840
:10180000206F6E2062656570004261636B6C696772
:10181000687420696E76657274004C69676874201C
:101820007377697463681F1F4C69676874206F66FB
:101830006620616674657213731F4C696768742053
:101840006F6E2053746B204D76137300436F6E746C
:101850007261737400FC1BB31BD41BE41BCB1BDB3A
:101860001BBF1BF41BEC1BA91BA11B22047C5E5499
:10187000546D0003457870457846466E654D656445
:101880004372730011544F541F01544D451154536A
:10189000571F0153544B1153542500035B4D454EC4
:1018A000555D20746F207265667265736800746D93
:1018B00072314C6174206D61781275731F746D7292
:1018C000314C6174206D696E1275731F746D7231C5
:1018D000204A69747465721275731F746D61696E44
:1018E000126D730053544154000966726565004DD2
:1018F0004F44454C53454C0020464D300A52455408
:10190000410020464D005377697463681F54726923
:101910006D731F4661646520496E1F4661646520D2
:101920004F757400000300464C204D4F4445005253
:10193000414E474520434845434B20525353493A73
:10194000000642494E44494E47004475706C696335
:101950006174696E67206D6F64656C0044454C4529
:101960005445204D4F44454C004455504C4943414B
:101970005445204D4F44454C00012B2A52004D49FF
:1019800058455200202020202020202020202020E8
:1019900020200044454C455445204D49583F000304
:1019A0005945530B4E4F1F035B4D454E555D0B5B29
:1019B000455849545D004D6178206D6978657273B2
:1019C0002072656163683A2033321F1F507265735D
:1019D00073205B455849545D20746F2061626F72BB
:1019E00074000841646420202020204D756C7469C7
:1019F000706C795265706C61636520004375727616
:101A00006500084469666600114578706F000155ED
:101A10007365204F75747075742020200001536F1A
:101A2000757263651F015765696768741F014F66AA
:101A3000667365741F01466978204F666673657426
:101A40001F01456E61626C654578706F44521F01DD
:101A50005472696D1F1F1F015377697463681F01FA
:101A60004D4F4445531F015761726E696E671F01E8
:101A70004D756C7470781F0144656C617920446FFA
:101A8000776E1F0144656C61792055701F01536C9E
:101A90006F772020446F776E1F01536C6F77202083
:101AA00055701F5357434820537769746368004546
:101AB000444954204D495820004F5000434C454163
:101AC00052204D49584553205B4D454E555D0054BD
:101AD000454D504C41544553005343092B0D2A1298
:101AE0002F00032D2D2D52746D45746D54746D416E
:101AF000746D52454E527564456C65546872416907
:101B00006C5031205032205033200001010101017E
:101B10000101000546697273744C617374200053AF
:101B20006F757263651F1F4F66667365741F4D7511
:101B30006C7469706C6965721F44697669736F7241
:101B40001F556E69741F5369676E1F446563696D25
:101B5000616C731F4F666673657420417400534354
:101B6000005B4D6F72655D00435600505245534512
:101B70005400435552564500032D2D2D494E560015
:101B80004E616D65005357522000566F69636500C2
:101B90004C2E5377697463686573004D697865727C
:101BA0000044696167416E610044696167537774FD
:101BB000636800417564696F4861707469630043CC
:101BC000616C6962726174696F6E00436F6E7472EA
:101BD0006F6C7300416C61726D7300486172647761
:101BE0006172650047656E6572616C00566572735F
:101BF000696F6E00547261696E657200446973703A
:101C00006C6179005B4D454E555D205748454E202F
:101C1000444F4E4500454449540053454C454354B8
:101C20000053454C2F4544495400434F5059004DF3
:101C30004F56450044454C455445004544495400E1
:101C4000494E5345525400434F5059004D4F56454D
:101C50000044454C45544500047349447873544846
:101C6000527352554473454C457341494C73474533
:101C7000417354524E0012081200081C0808081C38
:101C8000080000082200490022080000000000228D
:101C90007F220000000822004900220800000822DC
:101CA0000049002208000000227F220000000000FE
:101CB000082200490022080000081C0808081C0827
:101CC00000475600054665657420566F6C74734472
:101CD00065675F434465675F466D41682020416DDD
:101CE0007073204D65747265576174747300465645
:101CF00043466D416D5718242F2F0033383B0002A7
:101D00000304060901524554410050726F746F6319
:101D10006F6C00476C6F62616C5661727300536147
:101D20006665747920537773004375727665730026
:101D30004D6F646573004578706F2F44720048657D
:101D40006C69205365747570004C696D697473001B
:101D50004D6F64656C2053656C656374004D6F64F2
:101D6000656C205365747570004C617374204D650B
:101D70006E7500526164696F20536574757000530D
:101D8000746174697374696373004265657020637C
:101D90006F756E74646F776E004D696E7574652033
:101DA00062656570000420204F4E204F4646424F2A
:101DB000544800072D2D2D2D202020763E76616C75
:101DC0002020763C76616C20207C767C3E76616CAF
:101DD0007C767C3C76616C414E44202020204F5222
:101DE0002020202020584F522020202076313D3DB9
:101DF0007632207631213D76322076313E763220A1
:101E00002076313C763220204C6174636820204675
:101E10002D466C6F702054696D654F666676316033
:101E20003D76616C00065761726E31205761726EAB
:101E3000322043686561702052696E6720205363C9
:101E400069466920526F626F74204368697270201E
:101E5000546164612020437269636B7453697265D5
:101E60006E20416C6D436C6B526174617461546996
:101E7000636B202048617074633148617074633211
:101E80004861707463330054696D65720054524543
:101E9000303132414700204142434445464748499A
:101EA0004A4B4C4D4E4F505152535455565758591A
:101EB0005A6162636465666768696A6B6C6D6E6FB0
:101EC000707172737475767778797A303132333411
:101ED00035363738395F2D2E00FEFFFDF6F7F8F95D
:101EE000FAFBFC042D2D2D2D54494D3154494D3212
:101EF0004241545447767231477672324776723394
:101F0000477672344776723547767236477672373F
:101F100000032D2D2D783E30783C307C787C663E59
:101F200030663C307C667C63312063322063332032
:101F300063342063352063362063372063382063A1
:101F4000392063313063313163313263313363318E
:101F50003463313563313600045031202050322053
:101F6000205033202048414C4646554C4C43594361
:101F700031435943324359433350504D3150504D02
:101F80003250504D3350504D3450504D3550504DCF
:101F90003650504D3750504D384348312043483229
:101FA00020434833204348342043483520434836B3
:101FB000204348372043483820434839204348319C
:101FC000304348313143483132434831334348315B
:101FD00034434831354348313653574348475631E7
:101FE000204756322047563320475634204756352F
:101FF00020475636204756372054484953005377D8
:1020000069746368205761726E696E670000D96EEB
:1020100011241FBECFEFD0E1DEBFCDBF11E0A0E0A5
:10202000B1E0ECE9FFED02C005900D92A032B107DE
:10203000D9F72EE0A0E2B1E001C01D92AA33B207A9
:10204000E1F710E2C0E1D0E204C02297FE010E9455
:10205000606FCE30D107C9F70E94AB6D0C94CC6F86
:102060000C940000E091000694E0E99FF001112437
:10207000E80FF11DEC55FD4F84918F5F0895F894A2
:102080008091AA0A9091AB0A78940895E82FF0E025
:10209000E357FD4F849108952AE0829FC0011124E7
:1020A0008B5E9D4F089525E0829FC00111248B5ABD
:1020B0009C4F08950F93022F24FF03C00F7E9DE2D3
:1020C00001C094E2411104C024E041E852E00EC096
:1020D0004530A0F490916C0594FF0BC0006194E032
:1020E000499FA0011124465E594F24E00E94872693
:1020F0000DC02FEF240F44EB52E006C0941730F0D0
:102100002BEF240F48E55FE10E94AB260F91089565
:10211000442311F04C5E01C040E0CCCF0F931F93DD
:10212000CF93DF93D62FC42F022F16E0180F44232E
:1021300039F0463141F04A3E81F44AEC52E005C0A4
:102140004DE752E002C046EC52E06D2F812FDF9147
:10215000CF911F910F910C94BD2647FF04C041E21F
:102160000E94F425C1952FEF2C0F4EEC52E06D2FFD
:10217000812F0E94AB26DF91CF911F910F9108957F
:102180000F931F93CF93DF93D82F162FC42F022FB7
:10219000463134F04DE682E18D0F0E94F425C551A1
:1021A000202F4C2F612F8AEF8D0FDF91CF911F9140
:1021B0000F91B4CFDF92EF92FF920F931F93CF93C3
:1021C000DF93D82F162FF42E27FF03C0E6EBF1E0A4
:1021D00002C0E1EBF1E0C281D3802370E22E81E006
:1021E000821718F1C4306CF483E0C802A0011124F6
:1021F00040595D4F0F2D23E0612F8D2F0E948726C0
:1022000018C0CD5F0F2D2C2F41E15FE1612F8D2F85
:102210000E94AB26C0310CF4D6502F2D45E2612F21
:1022200082E18D0F0E94F42504C082E028130AC0C9
:1022300004C0E11007C0C13029F42F2D4D2D612FAE
:102240008D2F9EDFDF91CF911F910F91FF90EF9027
:10225000DF900895873038F4E82FF0E0EE0FFF1F8D
:10226000EF55F24F24C08C3050F18431C0F4482F28
:1022700050E0DA01AA0FBB1FA65EBE4F2D913C9124
:10228000803148F4FA01EE0FFF1FEA52FA4F8081C5
:102290009181281B390BC901880F991F0895843239
:1022A00048F4E82FF0E0EE0FFF1FE75AF24F80816D
:1022B000918108958E3218F484520C94EC3680E0AB
:1022C00090E008950E94A76D8111FCCF1092D90A69
:1022D00008950F931F93CF93DF938C01EB010E941E
:1022E000A92524E04DE952E060E082E20E94BD268B
:1022F000B80180E20E94E226BE0188E20E94E22646
:102300006AE572E080E3DF91CF911F910F910C9409
:10231000E22620916C05207679F0E62FF0E0EE0FB2
:10232000FF1FE454FA4F21813281821B930B0F96D9
:102330004F9728F080E0089548175907DCF381E0B3
:1023400008950F93262F00E04EEC52E060E10E94CA
:10235000AB260F910895CF93DF93D6E1C0E08D2F88
:102360000E94D72ACC0FC82BD150DE30C1F78C2F5A
:10237000DF91CF9108950F931F93CF93DF93082F91
:10238000CBEFD1E01AE0499124E0602F812F0E9429
:10239000F425155F1837B9F7DF91CF911F910F9191
:1023A00008951F93CF93DF93EC01162F0E94A92568
:1023B000BE0188E10E94E226111109C046E052E008
:1023C00068E38CE10E94F8264DE952E002C04EEF2E
:1023D00051E024E060E086E10E94BD26DF91CF91CC
:1023E0001F910C94F02961E0DCCF70E0882399F014
:1023F00090E0019725E0289FF001299FF00D11241E
:10240000E60FF71FEE0FFF1FE054FB4F8081918115
:102410008B509E4F0895FB01E352FC4F808199271A
:1024200087FD909508951F93CF93DF93D82F162F94
:10243000C4E0DD2391F0612F8D2FD7DF9C01253F74
:1024400081E0380764F08BE0820F8D1710F08CE08C
:10245000820FC15029F0D82FECCFC0E001C0CD2FA2
:102460008C2FDF91CF911F910895CF93C62FDBDF83
:102470006C2FCF91BACF9C0123583F4F2B3F310592
:1024800040F0181619061CF48DE790E0089583E8D3
:102490009FEF0895FF920F931F93CF93DF938A01CD
:1024A000C62FD0E08823D9F0BEDFF82E8823B9F0FC
:1024B000C801E1DF2F2D30E02150310945E0429F76
:1024C000F001439FF00D1124EC0FFD1FEE0FFF1FD5
:1024D000E054FB4F855F91409183808305C0C80124
:1024E000CADFC352DC4F888386E0DF91CF911F9112
:1024F0000F91FF900C941120AF92BF92CF92DF9278
:10250000EF92FF920F931F93CF93DF938C017B0188
:102510006A01A22EB090BB019B2D9F7D943439F0AF
:1025200080917F0D882309F498C0933479F4B19990
:1025300006C080914701E801C80FD11D02C0E80123
:10254000219683E10E94373485E010C0953419F05C
:10255000923409F088C0B19983C080914701E801A5
:10256000C81BD10984E10E94373484E00E94D72A35
:10257000811168C0E114F104F9F481E0C816D104B6
:10258000D9F480E6B81619F08EE2B81211C0109294
:102590007F0DC1E00115110509F0C0E0D0E08B2DE1
:1025A0000E94262B8EE2B81206C01092B50D03C011
:1025B000C170DD2701C0B12C40914A0150914B01FF
:1025C000C41BD50B8091B50D813071F44091C401CD
:1025D000B19905C084E14802A001112403C0552728
:1025E00047FD5095C40FD51FCC16DD0644F48B2D46
:1025F0000E94262B83E10E943734E6010AC0CE15E3
:10260000DF053CF48B2D0E94262B84E10E94373499
:10261000E701C017D10749F1B19903C08FEF80934B
:102620004406209751F48B2D0E94162B17FF02C0F1
:1026300083E101C084E10E9437348A2D83700E94B7
:10264000112013C0CC27DD27C01BD10B85E00E94D1
:10265000262B84E00E94262B8DCF953421F47BCF4E
:10266000E80121977FCFE80185CFCE01DF91CF919F
:102670001F910F91FF90EF90DF90CF90BF90AF90A0
:102680000895552747FD5095772767FD7095992741
:1026900087FD909531CF22E0F4CF462F22E060E015
:1026A000F0CF462F50E022E060E070E025CF21E03F
:1026B000E8CF462F21E060E0E4CFE0915301F0E065
:1026C000EE0FFF1FEA5AFE4F808191810895E0913D
:1026D0005301F0E0EE0FFF1FEC5AFE4F9183808311
:1026E0008FEB809352010895809104062AEF829F18
:1026F000C0011124880F991F20914301309144019A
:102700002817390720F490934401809343010895DA
:10271000EBE7FBE037A1303180F420A541E0420F28
:1027200040A7DF01A20FB11DA20FB11D8D939C9395
:10273000403108F010A63F5F37A3089590E08C5F0A
:102740009E4FE6CF90E0E4CF8093C60190E04097A3
:10275000DFCFFC0190910B0680A191FF74C091A185
:10276000882311F0946001C09B7F91A386A18130E2
:1027700059F5C79A37A121A1332321F181A541E061
:10278000480F41A7DF01A80FB11DA80FB11D8D9102
:102790009C9195A384A3403108F011A6315037A332
:1027A00097FD02C031E101C038E233A32C7F97FDD1
:1027B000226021A381A18BBBC7988FE182A382E015
:1027C00086A308952BBB48C081110CC0C79A81A174
:1027D000836081A38BBB8091A90A8D3308F43CC030
:1027E00086E02FC0823009F438C081A18BBBC79A24
:1027F000BF9800C0000000C086B38078BF9A96A141
:10280000933049F4882329F083A1815083A3811157
:1028100023C084E016C0943021F48823E9F083E0DB
:102820000EC0953039F483A1815083A3811114C067
:1028300081E007C0963081F4882371F084E183A39E
:1028400085E086A309C09091080696FB992790F928
:10285000891711F0C79A0895C79808951BBA8FE198
:102860008ABB00C099B38FEF8ABBECEBF1E08781A4
:10287000882311F080E202C0892F807E8483292F73
:10288000207C8081281759F08074880F90783181DE
:10289000891711F0315001C03F5F3183208382815D
:1028A0009381891711F083838183089590910006A5
:1028B00090FD02C093E08927E82FF0E0E155F24F48
:1028C000E081E7FDE95FE595E595E5951E1624F0C5
:1028D000EE2321F0E19502C080E801C080E0E830FD
:1028E00008F0E7E0F0E0EA57FD4FE491EE2319F03D
:1028F00099E090935E018E2B0895482F833021F04C
:10290000882321F0E82F03C0E0E001C0E3E0F0E01D
:10291000EE0FFF1FEF5DFE4F80819181443080F408
:1029200020911D0630E002C0359527954A95E2F7C3
:1029300020FF06C020E038E0A901481B590BCA015E
:102940000895FF920F931F93CF93DF93F12CC0E074
:10295000D0E08F2DD2DF092F10E0C00FD11FF394EC
:1029600084E0F812F6CFCE01DF91CF911F910F9145
:10297000FF900895C2DF2091020620FF03C09195C9
:10298000819591090895E1E2F1E040E0842F8064AF
:1029900087B9369A3699FECF24B135B1369A369931
:1029A000FECF84B195B1820F931F819391934F5FB6
:1029B000483061F7089578941F920F920FB60F92E6
:1029C00011248F93809120018F5F809320018F913C
:1029D0000F900FBE0F901F90189578941F920F9232
:1029E0000FB60F9211242F938F939F93EF93FF9322
:1029F000F89487B78F7B87BF789420917B01809173
:102A00007D0190910B06882359F090FF07C08091BB
:102A1000370E820F8093370E87FF02C01B9A01C0CA
:102A20001B9891FF2AC08091A506811126C0EBE773
:102A3000FBE086A1823009F583A1882311F0815043
:102A40001BC021A1C79A82A180FD09C02D7F84A14E
:102A500095A196FD2260880F991F95A384A381E01C
:102A600082278BBB81A3C79882A1815082A3811149
:102A700004C083E086A385E083A3F89487B78064CD
:102A800087BF7894FF91EF919F918F912F910F9035
:102A90000FBE0F901F90189578941F920F920FB64B
:102AA0000F9211242F933F934F935F936F937F93D4
:102AB0008F939F93AF93BF93EF93FF9381B7845608
:102AC00081BF89E791E00E947D320E94352B809181
:102AD000E70A82608093E70AE2E0F1E080818150BA
:102AE00011F0808304C084E6808381E08183828149
:102AF000815011F0828304C08AE0828381E0838365
:102B0000FF91EF91BF91AF919F918F917F916F91C5
:102B10005F914F913F912F910F900FBE0F901F909B
:102B2000189578941F920F920FB60F9211242F933D
:102B30003F934F935F936F937F938F939F93AF9345
:102B4000BF93EF93FF932091800030918100F89420
:102B500080917D008F7D80937D00789480913D06EB
:102B600090913E06A901481B590BCA01969587957D
:102B700030933E0620933D069C01215A3F402F3D55
:102B80003E4220F481E0809331012CC0E09131017C
:102B90002FEF2E0F283030F59C012152334027377C
:102BA0003540F0F424E62093C50121E02E0F209358
:102BB0003101F0E0EE0FFF1FE05DFE4F9C012C5D48
:102BC000354040910606465F429FC001439F900DED
:102BD00011246AE070E00E940D6F7183608302C06F
:102BE00010923101F89480917D00806280937D0085
:102BF0007894FF91EF91BF91AF919F918F917F91C9
:102C00006F915F914F913F912F910F900FBE0F9059
:102C10001F90189592EC980F81E0973008F080E0B3
:102C20000895FC018081882359F0843218F0855280
:102C30000C94143781500EDB40E060E00C94493472
:102C400008959C0155E0359527955A95E1F7280F91
:102C5000391FAC01440F452F441F550B241B350B66
:102C6000892F990F990B8595820F931F08959DE7E2
:102C7000980F9B3F88F08E57E82FF0E0EE0FFF1F74
:102C8000EE54FB4F808186171CF46083862F0895D5
:102C9000481714F44083842F089544E66CE9E7CF85
:102CA000982F80910C0284FF03C081E0923009F0DC
:102CB00080E0089549E2840290011124359527951A
:102CC0003595279587FD815C86FB880F880B80F9F9
:102CD000A901481B510987FD5395CA0108954F92D8
:102CE0005F926F927F928F929F92AF92BF92CF929C
:102CF000DF92EF92FF920F931F93CF93DF93782E83
:102D0000642E882309F4C5C086E1781621F09AEE76
:102D1000791203C0C0C081E0C2C086E187150CF4FF
:102D2000BAC0872D87FD81958A3040F4825F0E946A
:102D3000D72A17140CF4B3C091E01BC08A50E82EB8
:102D4000F12C6701CC0CDD1CE601CE0DDF1DCF5A46
:102D5000DB4F8A818F7009F49EC094E0941758F479
:102D6000F701E25DF94F9081917017140CF48FC058
:102D700081E0892794C04880598088D9811107C093
:102D80008881815067DA8C01898194DF0EC082309E
:102D900041F4888181505EDA8C01898181505ADA50
:102DA00004C080E090E000E010E02A812F70822EC5
:102DB000912CF4013197EE30F10508F06EC0EA5B1A
:102DC000FF4F0C945E6F17FF35C0119501951109E7
:102DD00031C017FF33C01195019511092FC001E0D3
:102DE000060D402F60E0842D7ADF182F402F60E021
:102DF000852D75DF2A812F70253061F4112309F4A8
:102E00004CC0882309F449C08A8182958F7059F596
:102E100091E031C0263019F41111F6CFF2CF982F7E
:102E200091271EC008171907C1F5EECF081719071B
:102E300059F733C0801791073CF32FC008171907C3
:102E40001CF32BC0F601E05AFE4F91819095991F1B
:102E50009927991F05C0F701E25DF94F90819170A4
:102E60009111D2CF08C089300CF08F5F41E0460D40
:102E700060E035DF982F2A812F7030E02C3031054B
:102E80000CF073CFF701E25DF94F90836ECF892F7D
:102E900006C0862F04C080E002C090E0ECCFDF9136
:102EA000CF911F910F91FF90EF90DF90CF90BF9047
:102EB000AF909F908F907F906F905F904F9008950C
:102EC00040E060E08091ED050ADF811113C0809140
:102ED000430190914401892B69F410929B0B8091DE
:102EE000A90A90914306981749F0809343068BE70F
:102EF0009BE02FCC81E080939B0BF1CF08951F9333
:102F0000CF93DF938091FF0580FD3BC08091000649
:102F1000817012E0181B37DDE12FF0E0EE0FFF1F8C
:102F2000E454FA4F418152818091020680FF06C02D
:102F3000519541955109258D368D02C027853089DF
:102F4000421B530BEA016096812F14DDAE01612F05
:102F5000E0D9811116C06BE472E089E392E0B9D93F
:102F60000E94F029AFD90FDDABDFA895812F02DDDC
:102F7000AE01612FCED9811104C00E94A76D8823B4
:102F800091F3DF91CF911F9108950F931F93CF93EA
:102F9000DF93C091AA048091FF0581FD4DC08C2F65
:102FA0008873883041F0803131F0803221F0C77C65
:102FB000C860C093AA0401E0CED9182FD82FDC270F
:102FC00063E272E084E192E084D9D0FF03C060E064
:102FD00082E0B7D9D1FF03C061E087E1B2D9D2FF67
:102FE00003C062E08CE2ADD98D2F887369F013FFC6
:102FF00002C063E007C014FF02C064E003C015FF15
:1030000003C065E081E49DD9D6FF03C066E086E594
:1030100098D9D7FF03C067E08BE693D90E94F029C7
:10302000011150D91C1741F00E94A76D811104C0F5
:1030300047DFA89500E0C0CFDF91CF911F910F919E
:103040000895CF93DF93C62F2091F801222339F002
:103050009093FA018093F901DF91CF91089560E098
:10306000A0D9C11103C08091EA0501C089E10E9485
:10307000BF2967E182E10E94413424D9D1E00E9456
:10308000A76D882319F0DF91CF911CC98091E70AC1
:10309000833019F4A8951092E70ACC2319F0D09345
:1030A0009B0B02C010929B0B0BDFE9CF60E0C9CFF6
:1030B00090915301911103C0811106C00CC0811180
:1030C00003C08FEF890F01C080E0809353018EEB26
:1030D00080935201089581EF91E0E8CFE091530190
:1030E000E43018F084EE91E0E1CF2FEB2093520111
:1030F000EF5FE0935301F0E0EE0FFF1FEC5AFE4F3D
:103100009183808308958111EFDA8091430190913A
:103110004401009709F0019720914201222361F0B8
:1031200020910C064AEF249F90011124220F331F97
:103130008217930708F4C9019093440180934301D7
:10314000BFCECF92DF92EF92FF920F931F93CF9358
:10315000DF938091AA0A9091AB0A90914206282FA2
:10316000291B209345018093420660E089E59DE09C
:103170000E94E55B80914501882309F49CC28091FF
:10318000C501882319F081508093C50180E09DD747
:103190000E94A9250E946B2A182F482F4F70E42EF9
:1031A0005AEFE50EC0910D02C43021F0C33019F47E
:1031B000C4E001C0C8E087E08E1508F48AC0812F02
:1031C000807F803209F485C08E2D86950E94321052
:1031D00090911C0690FD03C00FEF080F02C004E0A1
:1031E000081B602F8091F40B1ED9F82E602F3DD95B
:1031F0009C01C1110CC0EC0197FF04C0CC27DD2756
:10320000C81BD90BD595C795D595C795CF5F02300B
:1032100061F480910C0280FF4CC281E0C2E0909189
:10322000020690FF03C0C19501C080E0DD27C7FD05
:10323000D095E0FE03C0C20FD31F04C0A9014C1BF0
:103240005D0BEA01209721F09D2F932797FF10C077
:1032500081110EC0232B61F040E050E0602F8F2DD4
:1032600019D9812F0E94262B86E10E9437341FC274
:103270009E0124583F4F293F310540F4AE01602F95
:103280008F2D08D96C2FC7FF17C015C01C161D063F
:103290001CF44DE750E002C043E85FEF602F8F2D34
:1032A000F9D8CE0183589F4F8B3F910508F0FFC19D
:1032B0006C2F1C160CF4619567FD6D5F6595659527
:1032C000772767FD7095645C7F4F85E10E943C34F1
:1032D000EEC1812F8F7B69F480914406B199E3C1DF
:1032E0008F3F29F08F5F883C11F48FEF1DEB8093A7
:1032F0004406E8E4F1E08091AD0D9091AE0D20819F
:103300003181281B390B37FF02C0215E3F4F65E03A
:10331000359527956A95E1F72115310561F02481EE
:103320003581281B390B37FF02C02F5F3F4F359582
:10333000279591838083958384838091020685FD00
:1033400004C080917B0D882311F020E030E03383AE
:103350002283CCEBD1E02D818981821B8F3F09F440
:1033600080E087FD8F5F85958887982F990F920F52
:103370009D83812BC8DE00911806095FE0915301FF
:10338000F0E0EE0FFF1FEC5AFE4F208131812C56EA
:10339000394509F03FC08091D60D81113BC0288589
:1033A000222369F08E81332727FD3095A901480F2C
:1033B000511D87FD5A95CA015ED88E831886E0910B
:1033C00077048E2F807E31F1E295E695E770F0E08C
:1033D000E430F10554F4EE0FFF1FE955F24F208160
:1033E00031813C5F60E078E00CC0EE0FFF1FE055DC
:1033F000FB4F2081332727FD309523583F4F6AEF3D
:1034000070E047E0429FC001439F900D11240E944D
:10341000F96E062F8091C601081711F0802F94D9FC
:103420008091080687FF39C080915F018823A9F148
:1034300080915E01882399F18091410687FD03C048
:103440008F5F8093410682E031DA982F9F7789F071
:1034500020914106921718F51092410611111FC0D4
:10346000182F1095111F1127111F83E6811B182F8C
:1034700016C083E01BDA982F9F7789F020914106D0
:10348000921768F410924106111109C0182F109577
:10349000111F1127111F1C5902C010925E0181E0FB
:1034A00080935F010091F40BE090C201FF24E7FCE0
:1034B000F094C3EBD4E09AE0C92ED12C6881662346
:1034C00079F1653028F46150802F0E94351223C0B5
:1034D000653001F1E62FF0E0EE0FFF1F6A3010F0CB
:1034E0006D3078F4EB56F24F2081318137FF02C006
:1034F000295F3F4FC901B3E095958795BA95E1F7EC
:103500000AC0E959F24F80819181B6010E940D6F86
:10351000CB0101C0C7010E943B12FE01319780839D
:10352000229654E0C13CD50749F68091F90190916B
:10353000FA010097B1F060E00E94D1110E94A76DDE
:1035400090914006992339F0811128C01092FA0118
:103550001092F90123C0882309F181E0809340068D
:103560001DC010924006C0915201CC2331F0109240
:10357000520187E10E9437341C2F84E18093470178
:103580001093BB01E0915301F0E0EE0FFF1FEC5AE6
:10359000FE4F0190F081E02D812F09950E94F029C6
:1035A000C091650089E791E00E946932882311F09B
:1035B00084E105C08091390E882321F081508093E9
:1035C000390E06C080916300869581708093380E15
:1035D0008091380E8093F701882309F466C08091AA
:1035E000080685FD62C0CF7EC09365008091A90A60
:1035F0008F71823009F054C080912F019091300179
:10360000AC01F4E0440F551FFA95E1F797FD0796DA
:10361000BC01E3E075956795EA95E1F72091EC052B
:10362000332727FD30952A5F3F4F629FC001639F7C
:10363000900D729F900D1124840F951F209102060A
:1036400026FD05C0609100017091010102C060EF8C
:1036500070E00E94F96E80914601680F711D6F5FE6
:103660007F4F759567956093460180913F06805F17
:1036700080933F06811114C08091EB05681780F498
:10368000623370F06EE281E10E9441348091020663
:1036900083FF06C082E390E090934401809343014E
:1036A0001092420108C080E022CEC0619DCF10E0A0
:1036B00013CE80E0B4CDDF91CF911F910F91FF9099
:1036C000EF90DF90CF9008951F93CF93DF93C8ECD6
:1036D000D4E090E0888111E0190F882339F040E0B0
:1036E00060E0FDDA882311F0812F05C0912F2A9622
:1036F000143081F780E0DF91CF911F9108958F9270
:103700009F92AF92BF92CF92DF92EF92FF920F9370
:103710001F93CF93DF93EC01A62EB12C6501CC0C47
:10372000DD1CF601E953FE4F008111818981882358
:1037300009F459C08D809E80888181500E942A1191
:103740007C018981853038F4833050F4813079F000
:10375000823091F039C08530A1F0863071F134C0EB
:10376000F7FE03C0F194E194F108833029F481E07D
:103770008E149F043CF125C081E0E814F90414F193
:1037800020C0888147DA882369F08AE09701829F08
:103790007001839FF00C11249401829F4001839F4C
:1037A000900C1124E818F9083FE1E30EF11C81E0C8
:1037B0009FE3E916F10430F004C081E0E814F90455
:1037C00009F080E0E82EF12C8A81811104C0EF28F5
:1037D00039F081E01FC040E060E081DA8111F7CF6D
:1037E00000E010E016C08A81882341F040E060E0EC
:1037F00076DA81110BC00FEF1FEF0CC08B81833085
:1038000040F09C81907681E029F403C080E091E053
:1038100002C080E090E0892B90910501F501E9520A
:10382000FE4F91FD27C0813081F48081811105C058
:103830008B818D7F11F400E010E081E08083FF2414
:10384000F3948B818130D1F418C08081813061F490
:103850008B819FEF980F923038F400E010E08230B7
:1038600029F0FF24F39404C0F12C02C0A2E0FA2E48
:10387000108204C080830FEF1FEFF12C8C8187FD35
:1038800003C0F1100BC063C088818530D0F385522E
:103890000E94D436882309F45AC0F3CF17FF04C01E
:1038A0008B81833020F453C001151105D1F58C8133
:1038B0008076803211F4CE01B4D98C81877089F082
:1038C000813051F48F2D90E001972F813885820F40
:1038D000931F0E94881305C060E070E08F810E94F2
:1038E0003C348C818076803411F4CE019AD98C815D
:1038F000282F287181F0869586958695837090E0B3
:10390000029724F0283121F48FE003C08DE001C03C
:103910008EE00E9437348B818330B8F40FEF1FEFB5
:1039200016C0101611069CF40F5F1F4F8B8190E09C
:1039300002974AE0489F9001499F300D11242017BB
:1039400031072CF400E010E002C001E010E0F601C5
:10395000E953FE4F11830083DF91CF911F910F91A7
:10396000FF90EF90DF90CF90BF90AF909F908F909F
:1039700008951F93CF93DF93C4E7D5E010E0612F44
:10398000CE01BDDE29961F5F1830C9F7DF91CF91B8
:103990001F9108958F929F92AF92BF92DF92EF9204
:1039A000FF920F931F93CF93DF931092B40D8091EA
:1039B0002001C2B7909120018913F9CFD0E0D82B14
:1039C000809177048F7160E1D62ED81A0E94C314BB
:1039D0001EE517B90E942E14B4DB17B9369A369932
:1039E000FECF84B195B10496409100015091010140
:1039F00067E0649F9001659F300D1124820F931F33
:103A000053E0969587955A95E1F79093010180933D
:103A100000018091E70A833019F4A8951092E70A13
:103A20002091200182B7909120012913F9CF90E0D5
:103A3000922B8C1B9D0B20911E0130911F0128178A
:103A4000390720F490931F0180931E018091050196
:103A5000882309F423C180913B0690913C0601968E
:103A600090933C0680933B06BD2CF7E1FB1508F4D0
:103A70007CC00B2D10E0E801CC0FDD1FC858DB4FD8
:103A80008FE08B1528F4E801CC0FDD1FC452DB4F0B
:103A90008881E82EE294E69427E0E222F98095E01E
:103AA0009E1550F0EAEFEF1538F4EF2DF0E0EE0F31
:103AB000FF1FEE53FD4FF0808F7109F454C040E0BA
:103AC00060E00DD9A82E8091050101521E4F81FDA5
:103AD00048C08E2D857051F4F8018081811106C097
:103AE000AA2021F08F2D90E00E9488138FEF8E0D79
:103AF000823058F4F8018081813099F5A11031C0ED
:103B0000F2E0EF122AC0F39428C085E08E1550F43D
:103B1000F8018081811125C0AA2019F189810E94B4
:103B200014371FC0F2E0FE15E0F4AA20D1F084E0C3
:103B3000E81631F095E0E91631F066E970E005C06D
:103B40006CE271E002C068E572E080913B06909102
:103B50003C060E94F96E892B21F48F2D90E00E9483
:103B60008813F801A082B39480CF01E514E0CEE27F
:103B70008C2EC6E09C2ED0E6AD2ED1E0BD2EE12CE1
:103B8000F12CF80182818F700E944610833009F079
:103B90003EC0F501C081D181209771F4F801C08148
:103BA000C7FD06C0C095FAE0CF02E00111241BC09A
:103BB000DD27C7FDD09517C0D7FF14C0219699F413
:103BC000F701EE5AFB4FC081C7FD06C0CF5F8AE008
:103BD000C802E001112406C0DD27C7FDD095C095BD
:103BE000D09501C02197F8018281982F907F61F0D4
:103BF00082958F7089300CF08F5F40E060E06FD865
:103C0000811102C0CFEFDFEFF501D183C083F40152
:103C1000C081F80182818F708C3091F440E060E0C7
:103C200080815DD881110BC040E060E0F701EE5A61
:103C3000FB4F808154D8882319F0C0E001C0C1E057
:103C4000F80182818F708D30B1F440E060E08081B6
:103C500046D8882369F0C1FD0EC040E060E0F7015E
:103C6000EE5AFB4F80813BD8882321F0C3E003C08C
:103C7000CD7F01C0C2E0F401C1934F010D5F1F4F22
:103C8000F3E0EF0EF11C82E0A80EB11C94E2E916FD
:103C9000F10409F076CF6DDE1092050180910301E9
:103CA000882309F47CC020913A062F5E822F8F7002
:103CB00090E00C970CF0207F20933A06CBEFD1E0F8
:103CC000F12CE22FE073EE2EF22FFF70BF2E822F29
:103CD0008077A82E207F922EFD1409F457C08E0104
:103CE00003581D4FF8018081982F907C9034C1F4C7
:103CF000E11016C0880F880F40E060E0859585953B
:103D00000E946F16882361F080910B0680FF05C02A
:103D1000FE01E258FD4F808101C081E00E943734EE
:103D2000F8018081982F907C903869F5880F880F72
:103D3000859585958731BCF08751813039F018F031
:103D4000823039F020C0A1101EC006C0B1101BC0C7
:103D500003C0F0E29F1217C0FE01E258FD4F8081C0
:103D60000E94143710C0E1100EC040E060E00E94D5
:103D70006F16882341F0FE01E258FD4F8081805884
:103D800090E00E948813F3942296A6CF109203012C
:103D900080915E01882319F0815080935E01DF914C
:103DA000CF911F910F91FF90EF90DF90BF90AF9058
:103DB0009F908F9008951F93CF93DF93EC011AE0AB
:103DC00088810E9420430E94304389931150C1F79B
:103DD000DF91CF911F9108959C01265F3F4FFB011A
:103DE0004491DC014D93CD013196A217B307C1F781
:103DF0000895EDEBF5E080E090E021913191820FA4
:103E0000931F25E0E53DF207C1F7089582E7ECEB4B
:103E1000F5E0DF011D928A95E9F78BE08093BC0500
:103E200089E18093EA058AE58093EB0581E0809340
:103E30000006EDEBF5E020E032E080E093E0219336
:103E4000319395878487938F828FB5E0EB3CFB0796
:103E5000B1F761EE77E08DE096E0BEDFCADF9093C8
:103E6000E8058093E7050895EF920F931F93CF9392
:103E7000C82F21EC33E0EBEFF1E0DF01C9011D9227
:103E80000197E9F766ED77E0CF01A6DF8C2F90E090
:103E90006AE070E001960E940D6F605D6093000221
:103EA000805D8093010283E08093EB0482E0809345
:103EB0000D0280E00E941F2C61E06C0F88ECE82E60
:103EC00001EC13E02BEF31E042E088E596E0BED54F
:103ED000CF911F910F91EF9008950F931F93CF9360
:103EE000DF93EB01042F803120F561E0680F88E556
:103EF00096E0FDD310E0A80160E270E0CE010E94E0
:103F0000AC6F4AE050E0BE0188E596E073D40A97B2
:103F100081F488E596E0DDD3C00FD11F009749F00A
:103F20006AE070E00E940D6F805D8A93862F972F64
:103F3000F5CFDF91CF911F910F9108958F5F81C3CE
:103F4000FF920F931F93CF93DF93CDB7DEB72F97D9
:103F50000FB6F894DEBF0FBECDBF01E0080F102FE3
:103F60001031B0F4FF24F394F10E8F2D6AD3811138
:103F70000DC0602F88E596E0BAD361E0610F28E5B7
:103F800032E042E08FE496E011D506C01F2DE8CF65
:103F9000103179F780E017C04FE050E0BE016F5F4D
:103FA0007F4F88E596E0C0D3882349F0482FBE01B3
:103FB0006F5F7F4F8FE496E080D4A895EDCF8FE4BC
:103FC00096E01AD581E02F960FB6F894DEBF0FBEAB
:103FD000CDBFDF91CF911F910F91FF900895EF9288
:103FE0000F931F9361E08EE997E02BD88CE897E060
:103FF0000E94F311EAD298ECE92E02E710E02CEBD4
:1040000035E041E060E088E596E020D58237910513
:1040100019F08DE797E04AD880E01F910F91EF905B
:1040200023CFCF93C82F8770A1F090916306982B70
:10403000909363060E943F109093620680936106FE
:104040008C2F90E024E0959587952A95E1F7809351
:104050006406CF910895CF93DF93D9D2811102C026
:1040600080E030C052D287FDFBCF60E088E596E06B
:104070003ED382E7ECEBF5E0DF011D928A95E9F78C
:1040800042E750E0BF0188E596E0B4D38DE096E0CA
:1040900092DE8091BC058B3050F480917801816074
:1040A000809378018BE08093BC0581E0BADFC091FA
:1040B000E705D091E8059DDE21E0C817D90709F092
:1040C00020E0822FDF91CF910895EF920F931F93FD
:1040D000CF93DF931092A606C0916306CC2309F418
:1040E00098C0909164069F5C9093A60681111CC0B5
:1040F0000E943F102091610630916206821B930B53
:10410000883C910508F485C080916406882361F09D
:10411000815080936406882339F00E943F10909369
:1041200062068093610675C0109264068091450610
:1041300081116FC0DC2FD470C2FD02C081E001C0CC
:1041400083E080934506C0FF2CC082E38093A606DF
:10415000809163068E7F8093630644E1E42E02E73C
:1041600010E02CEB35E041E061E186E496E06ED4AE
:104170008237910519F461E180E02FC080914C06EF
:10418000823051F480916306816030C080914C068A
:10419000823029F1D1113BC08CEE97E00E94561875
:1041A00036C0C1FF34C083E38093A60680916306C6
:1041B000897F8093630634E1E32E01EC13E02BEF5B
:1041C00031E042E061E186E496E040D4813C9340F6
:1041D000E9F68091E90561E18F5F41D218C08091D5
:1041E0006306D11102C0826001C0866080936306BD
:1041F0000E943F10885C910990936206809361064B
:104200008091E70A833019F4A8951092E70A10927A
:104210004506DF91CF911F910F91EF900895809106
:104220006306882351F081E050DF8091E70A8330F4
:10423000B1F7A8951092E70AF2CF0895EF92FF9296
:104240000F931F93CF93DF93C82F803108F0C3C023
:1042500061E0680F88E596E04AD221EC33E0EBEFAD
:10426000F1E0DF01C9011D920197E9F741EC53E04C
:10427000BF0188E596E0BED28F3F910509F010F4AA
:104280008C2FF2DD8BEF91E096DD8091A3048111FC
:1042900007C080910C02869583708E5F8093A30483
:1042A0008091EB04823008F061C010E0812F0E9401
:1042B0004C10EC0189818150843018F40E94321036
:1042C00089831F5F103291F7C1E5D4E000E010E070
:1042D0008A818F700E944610882381F08230B9F461
:1042E000D801AE5ABB4F7D018C91882339F08530BF
:1042F0002CF481500E943210F7018083888188233A
:1043000031F0853024F481500E9432108883239646
:104310000D5F1F4F04321105D9F688E3E5EAF3E09B
:10432000AAEDBDE001900D928A95E1F7CAEDDDE0BE
:1043300010E00EE0812F0E9432108150089FD001C2
:104340001124AB55BC4FFE01802F01900D928A9530
:10435000E1F71F5F2E96143069F781EC97E00E9419
:10436000561882E08093EB045CDE59DF8091EB0409
:104370008330F8F480E090E0FC01EF5AFB4F22819B
:10438000322F3F703C3019F4207F2A602283228133
:10439000322F3F703D3019F4207F2B60228303962B
:1043A0008432910549F783E08093EB0482E039DEA3
:1043B00036DF8091EB04843070F48091170680938F
:1043C000AA048EEA97E00E94561884E08093EB04DA
:1043D00082E027DE24DFE1EBF1E0809106028283B8
:1043E00080917604838380910802909109029183E1
:1043F000808380910702817084838091A8048783E1
:104400008091A90480878091A6049091A704968347
:10441000858380916C0587FB882780F981870E94BE
:104420009A4B0E94A04BDF91CF911F910F91FF906B
:10443000EF90089540E450E060E070E085E696E09B
:104440000C94332A41E050E062E070E087E696E0A9
:104450000C94332ACF93DF931F92CDB7DEB76983D5
:1044600090E1899FB001112441E050E0CE01019616
:10447000FAD70F90DF91CF910895CF93DF931F92DA
:10448000CDB7DEB790E1899FB001112441E050E043
:10449000CE0101960E94B36F89810F90DF91CF9179
:1044A0000895CF93DF93D82FC82F8C2FE6DF882372
:1044B00021F08C2FE2DFC82FF8CF609167068C2F98
:1044C000C9DFD0936706DF91CF91BCCFCF93C09166
:1044D0006706CC2341F08C2FD0DF80936706B2DFD4
:1044E00060E08C2FB7DF8C2FCF910895CF93DF93AF
:1044F00080916706C0E0D0E0882319F02F96BDDFD9
:10450000FBCFCE01DF91CF910895DF92EF92FF9222
:104510000F931F93CF93DF9380E8EBEFF1E0DF0180
:104520001D928A95E9F7C9E6D6E0F12CB4E1FB12B9
:1045300005C08091670607E616E002C08E018881FB
:1045400090E0E12CDD24D394DF0C0097E9F09C018E
:10455000245031092C37310530F4FC01E550FE4F71
:104560002081222361F0EE2021F060E08E2D72DFA9
:1045700003C0F80110825EDF80E090E0E6CFD082D9
:10458000E82E7BDF90E0E1CFF3942396F5E1FF1274
:10459000CDCFC4E0D0E0FE01E550FE4F8081811117
:1045A00007C0609167068C2F55DFC09367064ADF0E
:1045B0002196C038D10579F780E0DF91CF911F9126
:1045C0000F91FF90EF90DF900895CF9380E4E5E6A0
:1045D000F6E0DF01982F1D929A95E9F794E0909309
:1045E00065068093660680E18093680684E0C1E0FA
:1045F000C80F6C2F2FDFCF3711F08C2FF8CF60E072
:104600008FE728DF84E080936706CF9113CF40E4E3
:1046100050E060E070E085E696E00E94B36F809124
:104620006606811103C080E480936606809165066A
:10463000843029F481E090916606903409F080E09E
:10464000089590E0FC01EE0FFF1FE80FF91FEB59F2
:10465000F94F81E09481911101C080E00895CF93DA
:10466000DF9390E0EC01CC0FDD1FC80FD91FCB59B1
:10467000D94F8C819D81AE8170E0FB01EE0FFF1F51
:10468000E60FF71FEB59F94F2481358146812C83C2
:104690003D834E8384839583A683DF91CF91CACED9
:1046A000CF9390E09C01220F331F280F391FF9018F
:1046B000EB59F94FC481F901E759F94F1082118282
:1046C0001282B8DECC2319F08C2FCF91EACECF9195
:1046D0000895FC01808190E0FC01EE0FFF1FE80FC0
:1046E000F91FE659F94F918180819F700895CF930A
:1046F000DF93FC0160831282118270E0CB01880F8E
:10470000991F860F971FEC01CB59D94F2C8123831A
:10471000148215821682FC01E559F94F8081829539
:104720008F70DF91CF910895AF92BF92CF92DF92B9
:10473000EF92FF920F931F93CF93DF931F92CDB70A
:10474000DEB78C01FC01808190E0FC01EE0FFF1FC1
:10475000E80FF91FE659F94F80812181922F9F7050
:10476000F80121813281821B930B7A01841795070E
:1047700008F47C015B016701C114D10421F1F80147
:104780008381882301F164816F5F648370E0F0E1CD
:104790008F9F600D711D112441E050E0CE01019604
:1047A0000E94B36F8981F50181935F01F8018481D3
:1047B0008F3028F01482838160DEF8018383F1E07A
:1047C000CF1AD108D9CFF801818192818E0D9F1D1A
:1047D0008C199D09928381838E2D8C190F90DF9106
:1047E000CF911F910F91FF90EF90DF90CF90BF90EE
:1047F000AF9008957F928F929F92AF92BF92CF9287
:10480000DF92EF92FF920F931F93CF93DF934C01B0
:104810006B018A01C0E0D0E05C0125E0A20EB11C72
:10482000C017D107D8F5F40185818F7781F0F401A5
:104830004581F42FFF777F2E2F2F30E0C8018C1B8E
:104840009D0B8217930758F4702E7C1A08C041E024
:1048500050E0B501C40168DF813049F31FC0E72C87
:10486000F12CC6018C0F9D1F47FF06C0A70160E019
:1048700070E00E94AC6F0BC0A701BC01C40154DF03
:10488000871529F0FE01E80FF11DCF0108C0CE0DFC
:10489000DF1DF401858187198583C2CFCE01DF91A9
:1048A000CF911F910F91FF90EF90DF90CF90BF902D
:1048B000AF909F908F907F900895AF92BF92CF92CC
:1048C000DF92EF92FF920F931F93CF93DF93EC0150
:1048D0008B01D42E8B81811110C089819A81892B03
:1048E00061F4E880F12CF2DD8B83F701EE0FFF1FFE
:1048F000EE0DFF1DEB59F94F8483CD2C8FE0A82ED0
:10490000CC2009F43CC0EF80F8840E943F10E81AE4
:10491000F90AF7FE02C082E004C08B81811103C056
:1049200081E08E832CC09C819F3058F01C82A5DDD5
:10493000811104C0CBDD682F8B818CDD8B819DDDE7
:104940008B838B81882361F36C819A2D961BBC2C01
:104950009C1508F4B92EEB2CF12C70E090E1899FA6
:10496000600D711D11246F5F7F4FA701C8017BD5BA
:104970000E0D1F1D8C818B0D8C83CB18C1CF6D2D1F
:1049800070E06C19710929813A81260F371F3A832B
:1049900029838D2D8C19DF91CF911F910F91FF905D
:1049A000EF90DF90CF90BF90AF900895EF92FF927D
:1049B0000F931F93CF93DF93EC01F62EE42E890122
:1049C00096DE6F2D70E0FB01EE0FFF1FE60FF71F65
:1049D000E659F94F1082E29430EFE322E1820E941F
:1049E0003F10800F911F98878F83DF91CF911F9188
:1049F0000F91FF90EF9008951F93CF93DF93EC01F9
:104A0000888190E0FC01EE0FFF1FE80FF91FE659C7
:104A1000F94F898180839A819F708181807F892B62
:104A200081838B81882321F028DD182F81110AC012
:104A300010E000DD112311F0812F33DDDF91CF91E4
:104A40001F91089560E08B8105DDF3CF7F928F92F7
:104A50009F92AF92BF92CF92DF92EF92FF920F930D
:104A60001F93CF93DF931F92CDB7DEB76C0159012F
:104A70002E2D30E09BDF19824501E12CF12C7724AB
:104A80007394F40181914F019981811108C07110D3
:104A90004CC08081811105C0772473941BC07110B4
:104AA0000AC080E09F3718F4E016F10661F5772020
:104AB00081F0782E01C0712C992329F19068998397
:104AC00041E0BE016F5F7F4FC601F7DE8130D1F05C
:104AD00026C0782E9923B9F041E0BE016F5F7F4F69
:104AE000C601EBDE8130D9F44981B701641B71093D
:104AF0006A0D7B1DC601E1DE9981891719F0981BAB
:104B000099830DC0198289818F5F8983A895FFEFF2
:104B1000EF1AFF0A0E151F0508F0B3CF08C08981F0
:104B20008F778701081B110902C0872DBBCFC601F3
:104B300063DFC8010F90DF91CF911F910F91FF901C
:104B4000EF90DF90CF90BF90AF909F908F907F902D
:104B5000089580E094E0E8EAF6E0DF019C011D9210
:104B600021503040E1F70895FF920F931F93CF93A8
:104B7000DF93FA01149131967491795F7695769569
:104B80007695DA01139631964491249FA00DB11DBC
:104B9000112466956695669590E0F0E86F9F800D0C
:104BA000911D112420E030E060E08855994F412F9D
:104BB00050E0671799F00A2FEC01C20FD31FFD01D7
:104BC000FE2EF01AF11620F4F490F9923196F8CFF7
:104BD000A40FB51F6F5F20583F4FEBCFDF91CF91F0
:104BE0001F910F91FF900895CF93DF93382F463197
:104BF0002CF4842F880F840F880F84C086E0830FE5
:104C000020FD08C021FD02C090E005C09091A90AD6
:104C100096FFFACF91E0687FA32FB0E050E1659F47
:104C2000A00DB11D1124A855B94F22FF3EC04E3230
:104C300011F08CE0830F24ED240F2F3010F44B5231
:104C400011C02FEB240F2A3110F441530BC02FE970
:104C5000240F2A3110F4465305C04F3511F44AE2AF
:104C600001C040E064E1469FA00111244A5F574F14
:104C70002BE022302CF0FA0134913A96E49102C0F4
:104C800030E0E0E04F5F5F4F992311F03095E09501
:104C9000FAE0A732BF0730F43C93ED01C058DF4F74
:104CA000E8831196215028F72DC023FF07C0892FD4
:104CB00081958D9385E0830F31E001C030E0552769
:104CC00047FD50954052510925E0249FF001259F52
:104CD000F00D1124E659F24F4491332311F02430A2
:104CE00039F05AE0A83AB50718F4911140954D9360
:104CF000215031962111F0CF6AE0A83AB60710F49E
:104D000091959C93DF91CF91089520E06DCFEF9224
:104D1000FF920F931F93CF93DF93F62E122F902FB6
:104D20009071E92EFA01112379F0EE2011F0408103
:104D300001C04491EF012196442331F0202F6F2DC3
:104D400053DF1150FE01EFCFDF91CF911F910F91F3
:104D5000FF90EF9008950F93FA0194914F5F5F4F8A
:104D6000929F400D511D1124292FD1DF0F910895DD
:104D70000F9300E0CCDF0F910895FF920F931F93E4
:104D8000CF93DF93162F022F922F9071F92EEA0105
:104D9000FF2011F0488102C0FE014491442361F0DC
:104DA0004F3131F4185F103438F480E02196F0CFA1
:104DB000202F612F19DFFACFDF91CF911F910F9133
:104DC000FF900895AB0120E0682F80E0D6CFFB0173
:104DD000442341F09491992351F09F3109F44150BB
:104DE0003196F6CF20E0AF01682F80E0C6CF08955E
:104DF00020E0C3CFFF920F931F93CF93DF93082F31
:104E0000F62EEA0114E1180F15504C2F4F704A305E
:104E10001CF0495C28E002C0405D20E06F2D812F2E
:104E2000E3DE84E0D695C7958A95E1F71013ECCFC1
:104E3000DF91CF911F910F91FF900895222321F0D0
:104E40009091A90A96FD0895480F687FE82FF0E039
:104E500090E1699FE00DF11D1124E855F94F8E1B7B
:104E6000982F9E0F941720F4908190959193F8CFEE
:104E700008952AE0883A920760F4FC01208130917D
:104E8000A706332319F0262B313009F02627FC0121
:104E900020830895262F287F6770E62FF0E0E65BD9
:104EA000F04F649190E030E1239F800D911D11241B
:104EB0008855994FDECFEF92FF920F931F93CF93B8
:104EC000DF93F42E47FF02C0840FF194962F987F52
:104ED000C82FD0E080E1989FC00DD11D1124C85586
:104EE000D94F6770E62FF0E0E65BF04FE490FF20CB
:104EF000B1F08AE0C83AD80790F4022F10E020FF02
:104F000008C06E2DCE01B5DF15950795202F2068BE
:104F100003C015950795202FFA942196E8CFDF91CD
:104F2000CF911F910F91FF90EF9008952FEFC3CF76
:104F30001F93CF93DF93142F47FF02C0640F119587
:104F4000962F987FC82FD0E080E1989FC00DD11D8B
:104F50001124C855D94F862F877099F0E82FF0E0BB
:104F6000E65BF04F64916195180F185017FF0DC064
:104F7000E12FFF27E7FDF095EE5AF04FE4916E0F19
:104F800004C018303CF018506FEFCE0172DFC058EB
:104F9000DF4FF7CF111654F4E12FFF27E7FDF0950F
:104FA000E65BF04F64916150CE0163DFDF91CF91FA
:104FB0001F9108953F924F925F926F927F928F92CE
:104FC0009F92AF92BF92CF92DF92EF92FF920F9398
:104FD0001F93CF93DF93182FB62E802F05FF04C0A9
:104FE00004FF04C002E003C000E001C001E0982F0C
:104FF0009F77C92EE7FE04C0E1946624639401C044
:10500000612C57FF0AC050954095309521953F4F30
:105010004F4F5F4F7724739401C0712C82FF06C0FD
:105020009CE09093A80AEAE0DE2E05C096E09093FB
:10503000A80A75E0D72E86FF28C071101D0D283EE6
:1050400083E038074105510514F01D0D05C02436D5
:1050500031054105510514F01D0D05C02A303105FB
:10506000410551050CF01D0D002381F0023031F493
:1050700024363105410551054CF41D0D2A3031050A
:10508000410551051CF41D0D01C01D198091A80A90
:10509000810F8093A80A023011F490EFC90E882482
:1050A000839452E0952EA12CFF24E7FCF09466E057
:1050B000562E5B0CE82DF0E0EE16FF060CF45DC0FA
:1050C0006AE070E0C9010E940D6F382EEB0140E3E9
:1050D000442E480E2C2D442D6B2D812F85DD08117B
:1050E0002FC0C2FE1AC08FEF830D833008F4939453
:1050F000CE016AE070E00E940D6F823011F08430C2
:10510000D9F484E3481204C0AA24A394A10E15C0C4
:10511000AA24AA94A10E939410C03EEF432E410EF0
:105120008FEF810FC0FE04C047E06B2D01DF02C08E
:10513000652DB0DE142D01C0A12E209709F000E0EE
:105140009E01442737FD4095542F21153105410517
:10515000510581F4002331F0023059F491E09815A3
:1051600040F008C0C4FE09C0611004C080EFC80E42
:1051700001C000E01D1983949DCFAA2051F0492D54
:105180006CE06B0D8A2DD2DE492D6DE06B0D8A2D02
:10519000CDDE772031F02C2D4DE26B2D812F8D1936
:1051A00023DD80E0DF91CF911F910F91FF90EF9071
:1051B000DF90CF90BF90AF909F908F907F906F9037
:1051C0005F904F903F900895EF920F93022F9A01B6
:1051D000442737FD4095542FF5E0EF2EEBDE0F917D
:1051E000EF900895CF93DF93D62FC22F206250E027
:1051F000EBDFC7FD08C02C2F46E76D2F8091A80A72
:10520000DF91CF91F1CCDF91CF910895242F409180
:105210004601E8CF20E0D8CFEF920F93022F005F36
:10522000242F30E040E050E0A2E0EA2EC3DE0F91F0
:10523000EF900895DF92EF92FF920F931F93CF9319
:10524000DF93182FF62EEA01E22E822F8470D82EDB
:1052500057FF0FC0882311F08CE101C08FE02E2D85
:105260004DE26F2D912F981B892FBEDCD195C195F2
:10527000D1092E2D20234AE36F2D812FB5DC6CE35D
:1052800070E0CE010E940D6F462FC82F2E2D6F2D7E
:10529000812FC2DFDD2011F08AE101C08FE0202FD5
:1052A0004C2F6F2D810FDF91CF911F910F91FF90A8
:1052B000EF90DF90B1CFFF920F931F93CF93DF93C7
:1052C000182FC62F042FD22FF090A70681E08093CD
:1052D000A706422F812F2CDE023030F04D2F6C2F8D
:1052E0008FEF800F810F24DE02501F5F6FEF6C0F76
:1052F0006D0F402F812F1ADE402F6C2F812F16DE6D
:10530000F092A706DF91CF911F910F91FF90089522
:105310000F931F93CF93DF93182FC62FD22FE42F15
:10532000F0E03297053608F004E60E9FC0010F9FAB
:10533000900D112464E670E00E940D6F062F2D2F52
:105340006C2F812FB8DF002361F0D150DC0FCF5FCD
:105350001F5FCD1730F4402F6C2F812FE7DDCF5F1B
:10536000F8CFDF91CF911F910F910895A998AB9835
:10537000AC988BBBAD9AAD98AB9AA99A0895CF9390
:10538000C82F81E08093A50681E8F0DF8C2FEEDF47
:105390001092A506CF9108958091EA05F0CFCF93A2
:1053A000DF9381E08093A506AA982AE02A95F1F779
:1053B00000C0AA9A8CED95E0E5E0EA95F1F70000CF
:1053C00001970097C9F7CCEFD7E0FE018491CEDFBB
:1053D0002196F8E0C630DF07C1F7DF91CF91DCCF2F
:1053E0001F93CF93DF934091A606442321F0809131
:1053F000A90A86FD33C081E08093A50610EBC8EAB8
:10540000D6E084E0B3DF80E1B1DF812FAFDFA99880
:10541000AB9AAC98FE019E0120583F4F80818BBB18
:10542000AD9AAD9881818BBBAD9AAD9882818BBBD3
:10543000AD9AAD9883818BBBAD9AAD983496E21747
:10544000F30761F7EF01AB9AA99A1F5F183BC9F602
:105450001092A506DF91CF911F9108954A5260E006
:1054600080E064DDC8CFBF92CF92DF92EF92FF92CF
:105470000F931F93CF93DF937B018A01080F191FAE
:10548000EC01E81AF90A6701CC0EDD1EC017D1073E
:10549000C1F0B990809145068270E19B05C08823D8
:1054A000E1F30E94CA1CF6CFDFBACEBAE09A8DB300
:1054B000B81649F3BDBA8FB7F894E29AE19A8FBF54
:1054C000E2CFDF91CF911F910F91FF90EF90DF908E
:1054D000CF90BF9008958091D90A1092D90A08956B
:1054E000FC0180818F70880F611181608F709081C5
:1054F000907F982B908381818F5F81838281882325
:1055000051F09F7041F4833621F0842F80628093A4
:10551000D90A118212828281883069F148F481307F
:1055200091F188F0823039F1843009F03FC023C016
:105530008F35C1F018F48031F1F00895813649F0CB
:10554000823671F1089580818F708F3079F581E610
:105550002BC040664093D90A1092080D1092070D97
:105560008FE522C08181803211F4406816C08832F4
:10557000E9F480E119C09181903328F090E095958D
:10558000879582831182828190E00197218130E0AA
:1055900082239323892B51F440644093D90A0895C0
:1055A0008181803418F088E08283118208954091CF
:1055B0006300282F30E02F3031056CF4F901EE0F35
:1055C000FF1FE20FF31FE455F54F90819F7081E0BC
:1055D0009F3051F52AC090E0FC013F97E930F1057A
:1055E00018F5EC5AFF4F0C945E6F91B1947019C08E
:1055F00091B1927016C0942F10C0942F909598700E
:1056000010C043FF11C091B102C091B19095907448
:1056100008C091B1907105C091B1917002C091B173
:10562000907281E0911101C080E008958F7090E048
:105630008F30910551F0FC01EE0FFF1FE80FF91FAD
:10564000E455F54F82E68283118208958F7090E0D1
:105650008F30910549F0FC01EE0FFF1FE80FF91F95
:10566000E455F54F83E682830895EF92FF920F93FE
:105670001F93CF93DF938091AA0A9091AB0A019672
:105680009093AB0A8093AA0A8093A90A96B3909547
:105690008091DA0A882321F0282F2877292349F4DA
:1056A000892F807609F04DC093FD47C094FF47C015
:1056B00080E1182F166019238093DA0ACCEADAE029
:1056C000F12C11FB662760F94F2DCE0109DFF39411
:1056D0001695239686E0F812F4CFE0B2E094C2E586
:1056E000DFE000E010E0FC1AFE0184914C2F4F0D2A
:1056F0008E2161E009F460E0C8018254954FF0DE2C
:1057000021960D5F1F4F0831110571F79091C0016F
:1057100061E0C92FC07295FF60E04EE086ED9AE02F
:10572000DFDE86B390E0809590958E7799278C2B5D
:1057300051F089E080935E0106C088E0BACF80E036
:10574000B8CF80E6B6CFDF91CF911F910F91FF9038
:10575000EF90089595E0899FD0011124AF51BC4F7F
:10576000CB010596FB0124912D933196E817F9079B
:10577000D1F708950F931F93CF93DF93182FC5E1AF
:10578000D2E090E08881181738F0882329F0903211
:1057900001F19F5F2A96F6CF9032D9F02FE130E0E9
:1057A000291B31090AE0029FA001039F500D11241B
:1057B000BE01CE010A960E949B6FFE0111920A95CE
:1057C000E9F7188384E68A838F8188608F83CE010E
:1057D00002C085E192E0DF91CF911F910F91089572
:1057E00080E491E0E5E1F2E0DF019C011D922150AF
:1057F0003040E1F7089588E2E1EEF3E0DF011D9229
:105800008A95E9F788E4E9E0F4E0DF011D928A95E2
:10581000E9F7089590E00197FC01EE0FFF1FE80FF4
:10582000F91FEF5AFB4F6F70628340832183089505
:10583000CF93C62F9FDFFC01C183CF9108959F9224
:10584000AF92BF92CF92DF92EF92FF920F931F938E
:10585000CF93DF9300D000D0CDB7DEB7182F1982D9
:105860001A821B821C82E0910506F0E0E15FFC4F8A
:1058700046E050E001E0F42E81E090E0249130E039
:105880000F2C02C0359527950A94E2F72370332731
:10589000B9016F5F7F4F6817790741F461E070E0ED
:1058A0006C0F7D1F260F371FD9010C930196853091
:1058B000910521F70F5F425051090530E1F61111B2
:1058C0000DC08EDF61E08981B3DF62E08A81B0DFE5
:1058D00063E08B81ADDF64E08C812BC0113041F43B
:1058E000EB81F0E0EE0FFF1FEA58FB4F10830AC078
:1058F000123059F4EB81F0E0EE0FFF1FEA58FB4F36
:1059000081EC80838CE981831AC11330A1F468DFB4
:10591000198161E0812F8CDF812F2CDF22E0FC01D7
:1059200021832CE922831A8161E0812F81DF62E0EB
:10593000812F7EDF04C1143099F452DF0A8162E0C6
:10594000802F76DF64E0802F73DF0C8162E0802F90
:105950006FDF802F0FDFFC0111832CE92283EFC062
:10596000153009F092C03CDF46DF81E003DF5AE0EA
:10597000C52EFC01C18282E0FDDE6BE0D62EFC016B
:10598000D18283E0F7DE7CE0F72EFC01F18261E05A
:1059900084E04EDF85E0EEDEFC0103E00183A4E05D
:1059A000BA2EB38287E0848387818160878385E014
:1059B000E1DEFC0101831383B8E09B2E9482878192
:1059C0008160878385E0D6DEFC01018386E0E82ED6
:1059D000E38299E0A92EA48287818160878385E094
:1059E000C9DEFC0191828CE9828381E08383878117
:1059F000897F8460878386E0BDDEFC01A1828EE121
:105A0000828388EF83838BE0B5DEFC01018326E48B
:105A1000A22EA282B382C4828781816087838BE0B9
:105A2000A9DEFC010183A2821383D4828781816075
:105A300087838BE09FDEFC010183A282E382F482F4
:105A4000878181608783809111028F71806280934A
:105A500011028FE1809312026EE67FE080E07ADE31
:105A600069E67FE081E076DE64E67FE082E072DE78
:105A70006FE57FE083E06EDE6AE57FE084E06ADE6A
:105A80006AE57FE085E066DE5AC01630A1F486E064
:105A900071DEFC01118382E3828388EF838304E655
:105AA000008786E067DEFC0111838EEC828388E04C
:105AB0008383008744C0173009F041C08FE05ADE6D
:105AC00014E2FC01118328E8268380E153DEFC0107
:105AD00089E081830EE602838AE0838380E14ADEE7
