:100000000C9443100C946B100C946B100C946B10AC
:100010000C946B100C946B100C946B100C946B1074
:100020000C946B100C946B100C9428150C94092FE5
:100030000C949D310C94362F0C946B100C948715F6
:100040000C9416150C946B100C940F6F0C946B1091
:100050000C946B100C946B100C946B100C946B1034
:100060000C9420320C94CE150C949B2F0C9460327F
:100070000C946B100C946B100C946B100C946B1014
:100080000C946B100C946B100C946B1057175B173F
:10009000201726172C172C172C174F1753175717E5
:1000A0005B17681768175F174A2B382B322B3B2BCF
:1000B0003F2B432B352B472B4C2B89338B338E33E4
:1000C0009333A433B333C133CB33DB33EB33F0336C
:1000D000063409340D340F34113416341A342534EF
:1000E0002934313438343C343E3442344434463498
:1000F00048344C34503455345A345F3464346934A1
:1001000073377337733773379F379637963796370A
:100110009637963796379637833788378837994595
:10012000A8455246E5476C48EE46C14ADA4AB2490C
:10013000E848F0484649F156B156BC56CB56D15620
:10014000D556DA56E05DEF5D005E165E1D5E245EFC
:100150002F5E465E5E5E565F815F8A5F935F9F5F44
:10016000C05FD05FFA5F476053609160B460CB605E
:10017000D760E360EF60E263D16D6166EC6AEC66C4
:10018000D16DD16DB969596CD16DD16D9C65F2633A
:10019000EC67204F6C642056657273696F6E204562
:1001A0004550524F4D202020434845434B20534556
:1001B0005454494E47532F43414C494200416C61CE
:1001C000726D732044697361626C656400454550CB
:1001D000524F4D206C6F77206D656D004C4F414440
:1001E000494E47006D537461636B206F666C6F7787
:1001F000006D537461636B2075666C6F77004D45BD
:10020000535341474500707265737320616E7920C6
:100210004B657900537769746368205761726E6922
:100220006E6700506C65617365205265736574205C
:100230005377697463686573005468726F74746C83
:1002400065206E6F742069646C6500526573657417
:10025000207468726F74746C6500507265737320DB
:10026000616E79206B657920746F20736B69700003
:100270004F46464F4E20544873544825002D2D2D8F
:10028000002D2D2D2D000000642810070301000013
:100290000000010101020202020101030020414CA1
:1002A0004552540000010203000201030301020051
:1002B000030201000452756420456C652054687285
:1002C0002041696C20004F4E20004F4646000354E9
:1002D0004852525544454C454944304944314944BB
:1002E0003241494C47454154524E4C31204C32200A
:1002F0004C33204C34204C35204C36204C37204C8D
:1003000038204C39204C41204C42204C4320001BCB
:100310001E272D36394B4E636C7278878D939CB1B6
:10032000B4C6C9D2D8E1E453706C617368008040F0
:1003300000000000000000000000000000000000BD
:1003400000000000000000000000000000000000AD
:10035000000000000000000000000000000000009D
:10036000000000000000000000000000000000008D
:10037000000000000000000000000080C0E0E0F08D
:10038000F8F8FCFCFCF8F8F8F040000000000080F1
:10039000808000000000000000000000000000005D
:1003A000000000000080C0C0E0E0E0F0F0F0E0C03D
:1003B0000000000000C0F8FFFF9F878383838383D2
:1003C00083838383838383838383838383838383FD
:1003D0008303838083838383838383838383838370
:1003E0008383838383838383838383C3E3733F1FF5
:1003F0000000000080E0F0F8FCFEFFFFFFFF7F3F01
:100400001F1F0F0783C3E1E1E0E0C0000E1F3F7F25
:100410007FFFF3E0E080000000000000000000002B
:1004200080F0FCFEFFFFFFFF7F3F0F030101010093
:10043000000080F0FEFFFFC7C1C1C1C1C1C1C1C181
:10044000C1C1C1C1C1C1C1C1C1C1C1C1C1C101C15C
:10045000F0FEFF3F0F070F0D0D0D1D191919193172
:1004600031313171616161E1C1C1C1810000008040
:10047000E0F8FCFFFFFFFF2F170F038180C0E0F0C3
:10048000F8FCFEFFFFFFFFFFFF7F01000000000000
:10049000000001010307070E1E1C3870E0F0F8FE93
:1004A000FFFF7F1F0F03000100000000000000009D
:1004B000000000000000000000000000000000003C
:1004C000000000000000000000000000000000002C
:1004D000000000000000000000000000000000001C
:1004E00000000000000000000000000000007EFF8F
:1004F000FFFFFFFFFFFBF8FCFCFEFF7F3F1F0F0726
:10050000C3FFFFFFFFFFFF7F0700000000000000A8
:1005100000000000000000C0E0F8FEFFFF7F1F0F9A
:100520001F3D7CF8F8F0E0800000000000000000B3
:1005300000000000000000000000000000000000BB
:1005400000000000000000000000000000000000AB
:10055000000000000000000000000000000000009B
:10056000000000000000000000000000000000008B
:100570000101010101030707070301000000E0FC7E
:10058000FFFFFFFFFF1F030000000000000000004E
:100590000000C0F078DE2713090E070300000000FA
:1005A0000000000001030F7FFFFC7878F8000000D6
:1005B000000000000000000080808080808080803B
:1005C00080008080008080000000000000008080AB
:1005D000808080808080808080808080808080801B
:1005E000000000000000000000000000000000000B
:1005F000000000000000000000000080F0FEFFFF8F
:10060000FFFF3F0F010000000000000000C0E038C5
:100610001E0F0300010000000000000000000000A9
:1006200000000000000000000000000303010000C3
:1006300000000000000000000E0E02020202020391
:1006400003000F0F000F0F080808080808080F0F15
:1006500008080808080F0F000000000F0F00000036
:10066000000000000000000000000000000000008A
:10067000000000000000000000C0F8BFFFFFFF1FE7
:100680007F010000000000000000F0FCFF7F7830D8
:10069000000000000000000000000000000000005A
:1006A000000000000000000000000000000000004A
:1006B000000000000000000000000000000000003A
:1006C000000000000000000000000000000000002A
:1006D000000000000000000000000000000000001A
:1006E000000000000000000000000000000000000A
:1006F00000000000000000301C070E0F0701000082
:1007000000000000000000000000000000000000E9
:1007100000000000000000000000000000000000D9
:1007200000000000000000000000000000000000C9
:1007300000564552533A2056312E37312D6D617295
:10074000656B1F444154453A2030332E30352E32EC
:100750003031351F54494D453A2032323A32373A1A
:1007600034311F2053564E3A20657239782D72313C
:100770001F204D4F443A20454C45524553202020E0
:10078000200067656E7772697465206572726F729A
:1007900000454550524F4D20466F726D617474692B
:1007A0006E670042616420454570726F6D20446140
:1007B000746100434845434B204D4F44454C205401
:1007C000494D45525300434845434B204D49582F0E
:1007D000445220534F5552434553004D4F44454CCE
:1007E0002020202020004D452020202020202020D7
:1007F00000454550524F4D206F766572666C6F779D
:1008000000E2AEA1A6A4A2C02F25AF000000000008
:1008100000000000000000000000000000000000D8
:100820000000000000000000000000333B1F0F002C
:10083000000000C0C0C0C0C0C0C0C0C0C000000038
:1008400000000000000000000000000000000000A8
:10085000000000183C3C180000000000000080C0B0
:10086000E070381C0C0C0E070301000000000000B3
:1008700000FCFE87C3E377FEFC00000F1F3B313016
:10088000381F0F00000C0EFFFF00000000000030BA
:10089000303F3F3030000000000C0E0783C3E77E7E
:1008A0003C00003C3E37333130303000000303C39E
:1008B000C3C3E7FE3C00003030303030391F0F003A
:1008C00000C0E070381C0EFFFF00000303030303A9
:1008D000033F3F00003F3F33333373E3C300000C5B
:1008E0001C383030381F0F0000FCFEC7C3C3C78E52
:1008F0000C00000F1F383030391F0F00000303C3F6
:10090000E3733B1F0F000000003F3F0000000000AA
:10091000003CFEE7C3C3E7FE3C00000F1F39303048
:10092000391F0F00003C7EE7C3C3E7FEFC00000058
:100930000030381C0E07030000183C3C1800000073
:10094000000000060F0F0600000000F0F8DCCEC724
:10095000C7CEDCF8F03F3F0000000000003F3FFF43
:10096000FFC3C3C3C3C3E7FE3C3F3F30303030302A
:10097000391F0FFCFE0703030303070E0C0F1F387C
:1009800030303030381C0CFFFF030303070E1CF817
:10099000F03F3F303030381C0E0703FFFFC3C3C3A6
:1009A000C3C3C303033F3F3030303030303030FFFB
:1009B000FFC3C3C3C3C3C303033F3F000000000022
:1009C000000000FCFE0703C3C3C3C7CECC0F1F3813
:1009D00030303030303F3FFFFFC0C0C0C0C0C0FF2C
:1009E000FF3F3F0000000000003F3F00000303FF07
:1009F000FF03030000000030303F3F3030000000B4
:100A00000000000303FFFF03030C1C383030381FC5
:100A10000F0000FFFFC0E0F0381C0E07033F3F004F
:100A20000103070E1C3830FFFF000000000000002B
:100A3000003F3F3030303030303030FFFF0E1CF898
:100A4000F81C0EFFFF3F3F0000000000003F3FFF8B
:100A5000FF3870E0C08000FFFF3F3F00000001034F
:100A6000033F3FFCFE070303030307FEFC0F1F3891
:100A700030303030381F0FFFFFC3C3C3C3C3E77E1E
:100A80003C3F3F0000000000000000FCFE070303A5
:100A9000030307FEFC0F1F383033371E1C3F33FFA4
:100AA000FFC3C3C3C3C3E77E3C3F3F000003070E41
:100AB0001C38303C7EE7C3C3C3C3C78E0C0C1C3844
:100AC00030303030391F0F03030303FFFF030303EC
:100AD00003000000003F3F00000000FFFF00000097
:100AE000000000FFFF0F1F3830303030381F0FFF7D
:100AF000FF000000000000FFFF03070E1C38381C39
:100B00000E0703FFFF000000000000FFFF0F1F386B
:100B1000381F1F38381F0F0F1F38F0E0E0F0381F64
:100B20000F3C3E0703010103073E3C3F7FE0C080CE
:100B300080C0E07F3F000000013F3F010000000354
:100B4000030383C3E3733B1F0F3C3E373331303025
:100B50003030300000000000000000000030303075
:100B6000303030303030300000303030303070E0F5
:100B7000C00C1E3F33333333333F3FFFFFC0E070C1
:100B8000303070E0C03F3F3030303030381F0FC061
:100B9000E070303030303000000F1F3830303030EF
:100BA000381C0CC0E070303070E0C0FFFF0F1F3801
:100BB00030303030303F3FC0E0703030303070E0A7
:100BC000C00F1F3B33333333330303C0C0FCFEC7B6
:100BD000C303070E0C00003F3F000000000000F0C0
:100BE000F89C0C0C0C0C0CFCFC000133333333333D
:100BF0003B1F0FFFFFC0E070303070E0C03F3F0090
:100C000000000000003F3F00003030F3F300000020
:100C100000000030303F3F30300000000000003066
:100C200030F3F300000C1C383030381F0F0000FF89
:100C3000FF0080C0E0703000003F3F03070F1C380A
:100C400030000000000303FFFF0000000000003040
:100C5000303F3F30300000F0F03070E0E07070E086
:100C6000C03F3F0000030300003F3FF0F0C0E070D2
:100C7000303070E0C03F3F0000000000003F3FC048
:100C8000E0703030303070E0C00F1F38303030301E
:100C9000381F0FF0F03030303030F0E0C03F3F030D
:100CA00003030303030100C0E0F0303030E0C0F084
:100CB000F000010303030303033F3FF0F0C0E070C3
:100CC000303070E0C03F3F0000000000000000C076
:100CD000E0F03030303030000030313333333333F4
:100CE0003F1E0C3030FFFF30300000000000000FCE
:100CF0001F383030381C0CF0F0000000000000F00D
:100D0000F00F1F383030381C0C3F3FF0F00000006F
:100D1000000000F0F003070E1C38381C0E0703F02B
:100D2000F0000000000000F0F00F1F38381C1C38E5
:100D3000381F0F3070E0C08080C0E0703030381C49
:100D40000F07070F1C3830F0F0800000000000F0A3
:100D5000F0000133333333333B1F0F30303030304A
:100D6000B0F0F0703030383C3E3733313030300046
:100D7000000000000000006F000007000700147F63
:100D8000147F14242A7F2A122313086462364955DB
:100D900022500005030000001C2241000041221CDB
:100DA0000014083E081408083E08080050300000EF
:100DB000080808080800606000002010080402000D
:100DC0003E49453E0000427F400062514946004195
:100DD000494936001814127F0027454539003E491D
:100DE0004932000179050300364949360006492990
:100DF0001E0000363600000056360000081422415E
:100E0000141414141441221408000201510906009C
:100E1000060909067E0909097E7F494949363E418E
:100E20004141227F4141221C7F494949417F0909B3
:100E300009013E4149497A7F0808087F00417F4106
:100E4000002040413F017F081422417F4040404044
:100E50007F020C027F7F0408107F3E4141413E7FAC
:100E6000090909063E4151215E7F09192946264993
:100E700049493201017F01013F4040403F1F20406E
:100E8000201F3F4030403F63140814630708700878
:100E9000076151494543007F414100020408102089
:100EA0000041417F000402010204404040404008EC
:100EB0000408100820545454787F48444438384477
:100EC000444420384444487F3854545418087E0918
:100ED00001020C5252523E7F0804047800447D40C7
:100EE000002040443D007F1028440000417F400026
:100EF0007C041804787C0804047838444444387C22
:100F000014141408081414187C7C080404084854A9
:100F1000545420043F4440203C4040207C1C20404E
:100F2000201C3C4020403C44281028440C50505089
:100F30003C4464544C44000836410000007F0000EB
:100F400000413608000808221C08081C2208080175
:100F50000204081020408040800804201002019CF8
:100F6000CE003264E2F1003264645A505A64504652
:100F70003C46649C141E465A536572766F20546535
:100F80007374004779726F205365747570004865FB
:100F90006C6920536574757000456C65766F6E5C86
:100FA00044656C746100562D5461696C005374691A
:100FB000636B7920542D43757400542D4375740070
:100FC00053696D706C6520342D434800C00FBA0F13
:100FD000AD0FA60F990F8E0F830F780F00008911A8
:100FE00012239B322446AD573665BF74488CC19D91
:100FF0005AAFD3BE6CCAE5DB7EE9F7F88110080171
:1010000093331A22A5562C47B7753E64C99C408D70
:10101000DBBF52AEEDDA64CBFFF976E802218B300C
:10102000100299132667AF763444BD554AADC3BC50
:10103000588ED19F6EEBE7FA7CC8F5D983310A2030
:1010400091121803A7772E66B5543C45CBBD42AC30
:10105000D99E508FEFFB66EAFDD874C904428D53C8
:1010600016619F702004A9153227BB364CCEC5DF10
:101070005EEDD7FC6888E1997AABF3BA85520C43F0
:1010800097711E60A1142805B3373A26CDDE44CFF0
:10109000DFFD56ECE9986089FBBB72AA06638F728C
:1010A00014409D512225AB343006B9174EEFC7FED0
:1010B0005CCCD5DD6AA9E3B8788AF19B87730E62B0
:1010C00095501C41A3352A24B1163807CFFF46EEB0
:1010D000DDDC54CDEBB962A8F99A708B0884819558
:1010E0001AA793B62CC2A5D33EE1B7F04008C919A0
:1010F000522BDB3A644EED5F766DFF7C8994008560
:101100009BB712A6ADD224C3BFF136E0C11848097F
:10111000D33B5A2AE55E6C4FF77D7E6C0AA583B4FB
:10112000188691972EE3A7F23CC0B5D14229CB385F
:10113000500AD91B666FEF7E744CFD5D8BB502A41F
:1011400099961087AFF326E2BDD034C1C3394A283F
:10115000D11A580BE77F6E6EF55C7C4D0CC685D7B7
:101160001EE597F42880A1913AA3B3B2444ACD5B1F
:101170005669DF78600CE91D722FFB3E8DD604C7DF
:101180009FF516E4A9902081BBB332A2C55A4C4BFF
:10119000D7795E68E11C680DF33F7A2E0EE787F67B
:1011A0001CC495D52AA1A3B03882B193466BCF7ADF
:1011B0005448DD59622DEB3C700EF91F8FF706E69F
:1011C0009DD414C5ABB122A0B9923083C77B4E6ABF
:1011D000D5585C49E33D6A2CF11E780F064F4E202E
:1011E0002020204F4646202020424F5448202031C6
:1011F00035536563733330536563733630536563BA
:101200007356617269626C00565300072038205390
:1012100065637331322053656373313620536563E0
:1012200073000153415658004E756D626572205629
:101230006F69636520537700536166657479205345
:101240007769746368657300434F5059205452495D
:101250004D205B4D454E555D000D4F6E004C4F4788
:101260004943414C205357495443484553000A438E
:101270006F756E7420446F776E436F756E74205572
:101280007020200054696D65721F5472696767652C
:1012900072411F54726967676572421F54696D65B8
:1012A000721F526573657420537769746368000315
:1012B000416D654A617045757200034431364438AA
:1012C000204C52500020547970651F20436F756E7A
:1012D0007472791F42696E641F52616E67650009FE
:1012E0004C50342F4C5035202044534D326F6E6C8F
:1012F000792044534D322F44534D580044534D20D0
:10130000547970650003504F534E45470053686948
:1013100066742053656C0050504D2046724C656ECB
:101320000D6D536563000B52784E756D00043443A8
:101330004820364348203843482031304348313232
:10134000434831344348313643480013755300064F
:1013500050504D20202050585820202044534D32CA
:10136000202050504D31362050504D53494D0031C2
:101370007374204368616E1F50726F746F00024572
:1013800078706F1F1F015765696768741F1F44726B
:101390005377311F44725377320007044452204878
:1013A0006920044452204D6964044452204C6F77F4
:1013B00000042D2D2D2D3132302031323058313472
:1013C00030203930202000537761736820547970C1
:1013D000651F436F6C6C6563746976651F53776135
:1013E00073682052696E671F454C452044697265D9
:1013F0006374696F6E1F41494C2044697265637460
:10140000696F6E1F434F4C20446972656374696F46
:101410006E0052455441313233005472696D20538D
:10142000771F48692E52657320536C6F772F446580
:101430006C61791F4265657020436E7400064578C3
:1014400070202020457846696E6546696E652020CB
:101450004D656469756D436F6172736500032D2D71
:101460002D503120503220503320475634475635C6
:1014700047563647563700566F6C756D6520436F7B
:101480006E74726F6C1F452E204C696D6974731FEA
:10149000547261696E65721F542D5472696D1F54C8
:1014A0002D4578706F1F5472696D20496E63000579
:1014B0002D313030252020203025004465666175AF
:1014C0006C742053771F437573746F6D53746B4E38
:1014D000616D65731F4175746F204C696D6974731C
:1014E0001F5468726F74746C652044656661756C16
:1014F0007400566F69636520496E646578114D45C7
:101500004E5500A01B431D4E1D3B1D351D2E1D9528
:101510001B231D181D8F1B8C1EE91B0F1D56410020
:10152000566F69636520416C61726D73004D454E65
:1015300055204C4F4E470044656C65746500566FEE
:101540006963652046696C6500062D2D2D2D2D2DB6
:101550004E756D62657220417564696F0004506C50
:1015600061794D75746500064E6F2020202042651C
:10157000666F726541667465722000072D2D2D2DF2
:101580002D2D2D48617074696331486170746963F1
:101590003248617074696333000776603D76616C30
:1015A00020763D76616C20200007280D2900506CC4
:1015B000617920536F757263651F4F6E206E6F20C7
:1015C00054656C656D657472791F46696C655479F4
:1015D000706500536F757263651F46756E6374693D
:1015E0006F6E1F56616C75651F5377697463681F52
:1015F000526174651F48617074696300566F696356
:101600006520416C61726D00034D4F564520535467
:1016100049434B532F504F54530005534554204DCD
:101620004944504F494E5400035B4D454E555D2093
:10163000544F2053544152540042616E64476170CC
:101640000043616C004D756C7469706C6965720063
:10165000036F6666202B3D203A3D00036D6F646585
:101660000A2520737263202073770007536C61761C
:10167000650012424700414E41005472696D2D20B1
:101680002B00204C6566741F52696768741F0355F0
:10169000701F20446F776E1F20457869741F204D9E
:1016A000656E75004449414700537469636B536329
:1016B000726F6C6C00506F745363726F6C6C00537C
:1016C000706C617368204E616D650053706C61735E
:1016D000682073637265656E00416C61726D20579E
:1016E00061726E696E67004D656D6F72792057612A
:1016F000726E696E67005468726F74746C652057FF
:1017000061726E696E6700426174746572792077E8
:1017100061726E696E671F496E6163746976697480
:101720007920616C61726D136D00014368616E6EAA
:10173000656C204F726465721F4D6F646500456E65
:1017400061626C652050504D53494D005468726F72
:1017500074746C6520726576657273650043726F90
:1017600073735472696D002048617074696320530B
:101770007472656E677468000A42656570657220F0
:10178000202020506953706B722020202042656514
:101790007072566F696365506953706B566F6963F9
:1017A000654D656761536F756E64200006517569FC
:1017B0006574204E6F4B6579207853686F7274534F
:1017C000686F7274204E6F726D20204C6F6E6720B0
:1017D00020784C6F6E672000566F6C756D651F42E8
:1017E00065657065721F536F756E64204D6F64651B
:1017F0001F20537065616B657220506974636800C7
:10180000466C617368206F6E20626565700042618E
:10181000636B6C6967687420696E76657274004CDE
:1018200069676874207377697463681F1F4C696700
:101830006874206F666620616674657213731F4C4E
:1018400069676874206F6E2053746B204D76137334
:1018500000436F6E747261737400011CB81BD91B56
:10186000E91BD01BE01BC41BF91BF11BAE1BA61B05
:1018700022047C5E54546D000345787045784646DA
:101880006E654D65644372730011544F541F0154CB
:101890004D45115453571F0153544B1153542500B8
:1018A000035B4D454E555D20746F20726566726511
:1018B000736800746D72314C6174206D61781275BB
:1018C000731F746D72314C6174206D696E12757383
:1018D0001F746D7231204A69747465721275731FBA
:1018E000746D61696E126D73005354415400096642
:1018F000726565004D4F44454C53454C0020464DA4
:10190000300A524554410020464D005377697463B4
:10191000681F5472696D731F4661646520496E1FAC
:1019200046616465204F757400000300464C204DED
:101930004F44450052414E474520434845434B20C4
:10194000525353493A000642494E44494E470044D7
:1019500075706C69636174696E67206D6F64656C26
:101960000044454C455445204D4F44454C0044559A
:10197000504C4943415445204D4F44454C00012BA8
:101980002A52004D49584552002020202020202076
:10199000202020202020200044454C455445204D47
:1019A00049583F00035945530B4E4F1F035B4D45AC
:1019B0004E555D0B5B455849545D004D6178206D77
:1019C00069786572732072656163683A2033321FEB
:1019D0001F5072657373205B455849545D20746FC6
:1019E0002061626F7274000841646420202020200E
:1019F0004D756C7469706C795265706C61636520AB
:101A00000043757276650008446966660011457882
:101A1000706F0001557365204F75747075742020C8
:101A2000200001536F757263651F01576569676810
:101A3000741F014F66667365741F01466978204FF5
:101A400066667365741F01456E61626C65457870EA
:101A50006F44521F015472696D1F1F1F0153776934
:101A60007463681F014D4F4445531F015761726EE7
:101A7000696E671F014D756C7470781F0144656C49
:101A8000617920446F776E1F0144656C6179205540
:101A9000701F01536C6F772020446F776E1F0153C6
:101AA0006C6F77202055701F535743482053776938
:101AB0007463680045444954204D495820004F50F4
:101AC00000434C454152204D49584553205B4D45FC
:101AD0004E555D0054454D504C41544553005343C1
:101AE000092B0D2A122F00032D2D2D52746D4574D4
:101AF0006D54746D41746D52454E527564456C65FC
:101B000054687241696C50312050322050332000AB
:101B100001010101010101000546697273744C6104
:101B200073742000536F757263651F1F4F66667371
:101B300065741F4D756C7469706C6965721F4469BA
:101B40007669736F721F556E69741F5369676E1FD4
:101B5000446563696D616C731F4F666673657420BD
:101B60004174005343005B4D6F72655D0043560046
:101B700050524553455400435552564500032D2DB0
:101B80002D494E56004E616D650053575220005648
:101B90006F696365004C2E537769746368657300E1
:101BA0004D697865720044696167416E61004469FE
:101BB0006167537774636800417564696F48617049
:101BC0007469630043616C6962726174696F6E006D
:101BD000436F6E74726F6C7300416C61726D730051
:101BE00048617264776172650047656E6572616C09
:101BF0000056657273696F6E00547261696E65722A
:101C000000446973706C6179005B4D454E555D20F1
:101C10005748454E20444F4E4500454449540053D3
:101C2000454C4543540053454C2F454449540043CB
:101C30004F5059004D4F56450044454C45544500C2
:101C40004544495400494E5345525400434F50595E
:101C5000004D4F56450044454C45544500047349DA
:101C60004478735448527352554473454C457341FC
:101C7000494C734745417354524E001208120008F4
:101C80001C0808081C08000008220049002208005F
:101C900000000000227F22000000082200490022EC
:101CA00008000008220049002208000000227F22CC
:101CB0000000000000082200490022080000081C63
:101CC0000808081C0800475600054665657420563C
:101CD0006F6C74734465675F434465675F466D412D
:101CE000682020416D7073204D6574726557617472
:101CF000747300465643466D416D5718242F2F00CC
:101D000033383B0002030406090152455441005098
:101D1000726F746F636F6C00476C6F62616C5661B9
:101D2000727300536166657479205377730043754D
:101D300072766573004D6F646573004578706F2F20
:101D400044720048656C69205365747570004C6975
:101D50006D697473004D6F64656C2053656C6563C9
:101D600074004D6F64656C205365747570004C6130
:101D70007374204D656E7500526164696F20536500
:101D8000747570005374617469737469637300428D
:101D900065657020636F756E74646F776E004D6952
:101DA0006E7574652062656570000420204F4E20BA
:101DB0004F4646424F544800072D2D2D2D20202000
:101DC000763E76616C2020763C76616C20207C76B5
:101DD0007C3E76616C7C767C3C76616C414E442026
:101DE0002020204F522020202020584F52202020F9
:101DF0002076313D3D7632207631213D7632207697
:101E0000313E7632202076313C763220204C61748F
:101E100063682020462D466C6F702054696D654FB5
:101E200066667631603D76616C00065761726E3190
:101E3000205761726E322043686561702052696E6E
:101E4000672020536369466920526F626F74204394
:101E50006869727020546164612020437269636B09
:101E600074536972656E20416C6D436C6B52617482
:101E70006174615469636B202048617074633148F8
:101E800061707463324861707463330054696D65C6
:101E900072005452453031324147002041424344A0
:101EA00045464748494A4B4C4D4E4F50515253546A
:101EB00055565758595A6162636465666768696A1E
:101EC0006B6C6D6E6F707172737475767778797AEA
:101ED000303132333435363738395F2D2E00FEFF3E
:101EE000FDF6F7F8F9FAFBFC042D2D2D2D54494D84
:101EF0003154494D324241545447767231477672DB
:101F00003247767233477672344776723547767247
:101F1000364776723700032D2D2D783E30783C30D1
:101F20007C787C663E30663C307C667C6331206326
:101F300032206333206334206335206336206337D7
:101F400020633820633920633130633131633132AB
:101F500063313363313463313563313600045031DA
:101F60002020503220205033202048414C464655F6
:101F70004C4C4359433143594332435943335050F6
:101F80004D3150504D3250504D3350504D345050D3
:101F90004D3550504D3650504D3750504D384348C8
:101FA00031204348322043483320434834204348BB
:101FB000352043483620434837204348382043489B
:101FC0003920434831304348313143483132434866
:101FD0003133434831344348313543483136535720
:101FE00043484756312047563220475633204756FC
:101FF0003420475635204756362047563720544818
:10200000495300537769746368205761726E696E33
:10201000670020654C655265532054656C656D659D
:10202000747279203F2F33005350454544207C2063
:10203000414C5449545544450020464958207C2081
:10204000534154207C20434F555253450048444F40
:10205000503A0054494D453A004C4F4E472E203AD5
:10206000004C415449542E3A005652783A00090E19
:102070000218244219F919422418002030303F3048
:1020800030200000B67111241FBECFEFD0E1DEBFBB
:10209000CDBF11E0A0E0B1E0ECEBF5EE02C00590A1
:1020A0000D92A634B107D9F72FE0A6E4B1E001C044
:1020B0001D92A53EB207E1F710E2C6E8D0E204C0E7
:1020C0002297FE010E943D72C438D107C9F70E94D1
:1020D00086700C94DC720C940000E091260694E06B
:1020E000E99FF0011124E80FF11DEC55FD4F84919B
:1020F0008F5F0895F8948091D00A9091D10A7894D6
:102100000895E82FF0E0E357FD4F849108952AE009
:10211000829FC0011124855C9D4F089525E0829F18
:10212000C001112485589C4F08950F93022F24FF5E
:1021300003C00F7E9DE201C094E2411104C024E07F
:1021400041E852E00EC04530A0F49091920594FF12
:102150000BC0006194E0499FA0011124405C594FDD
:1021600024E00E94C4260DC02FEF240F44EB52E060
:1021700006C0941730F02BEF240F4DE55FE10E946D
:10218000E8260F910895442311F04C5E01C040E011
:10219000CCCF0F931F93CF93DF93D62FC42F022F53
:1021A00016E0180F442339F0463141F04A3E81F4DD
:1021B0004AEC52E005C04DE752E002C046EC52E066
:1021C0006D2F812FDF91CF911F910F910C94FA26E3
:1021D00047FF04C041E20E943126C1952FEF2C0F2A
:1021E0004EEC52E06D2F812F0E94E826DF91CF91B7
:1021F0001F910F9108950F931F93CF93DF93D82FC3
:10220000162FC42F022F463134F04DE682E18D0F98
:102210000E943126C551202F4C2F612F8AEF8D0F40
:10222000DF91CF911F910F91B4CFDF92EF92FF9288
:102230000F931F93CF93DF93D82F162FF42E27FFE2
:1022400003C0ECEDF1E002C0E7EDF1E0C281D38024
:102250002370E22E81E0821718F1C4306CF483E021
:10226000C802A001112440595D4F0F2D23E0612FBA
:102270008D2F0E94C42618C0CD5F0F2D2C2F46E154
:102280005FE1612F8D2F0E94E826C0310CF4D650FB
:102290002F2D45E2612F82E18D0F0E94312604C06F
:1022A00082E028130AC004C0E11007C0C13029F43D
:1022B0002F2D4D2D612F8D2F9EDFDF91CF911F91FF
:1022C0000F91FF90EF90DF900895873038F4E82F5A
:1022D000F0E0EE0FFF1FE953F24F24C08C3050F1B5
:1022E0008431C0F4482F50E0DA01AA0FBB1FA05C74
:1022F000BE4F2D913C91803148F4FA01EE0FFF1F43
:10230000E450FA4F80819181281B390BC901880F55
:10231000991F0895843248F4E82FF0E0EE0FFF1F74
:10232000E158F24F8081918108958E3218F48452E1
:102330000C94293780E090E008950E94827081110A
:10234000FCCF1092FF0A08950F931F93CF93DF9352
:102350008C01EB010E94E62524E04DE952E060E0AB
:1023600082E20E94FA26B80180E20E941F27BE0185
:1023700088E20E941F276AE572E080E3DF91CF9137
:102380001F910F910C941F2720919205207679F0D0
:10239000E62FF0E0EE0FFF1FEE51FA4F2181328160
:1023A000821B930B0F964F9728F080E008954817F3
:1023B0005907DCF381E008950F93262F00E04EECDF
:1023C00052E060E10E94E8260F910895CF93DF93D9
:1023D000D6E1C0E08D2F0E94142BCC0FC82BD1501A
:1023E000DE30C1F78C2FDF91CF9108950F931F93AB
:1023F000CF93DF93082FC1E2D2E01AE0499124E0A5
:10240000602F812F0E943126155F1837B9F7DF91B1
:10241000CF911F910F9108951F93CF93DF93EC01FC
:10242000162F0E94E625BE0188E10E941F27111188
:1024300009C046E052E068E38CE10E9435274DE98F
:1024400052E002C04EEF51E024E060E086E10E94DD
:10245000FA26DF91CF911F910C942D2A61E0DCCFF9
:1024600070E0882399F090E0019725E0289FF00123
:10247000299FF00D1124E60FF71FEE0FFF1FEA5101
:10248000FB4F808191818B509E4F0895FB01ED5F42
:10249000FB4F8081992787FD909508951F93CF93D7
:1024A000DF93D82F162FC4E0DD2391F0612F8D2FFD
:1024B000D7DF9C01253F81E0380764F08BE0820F75
:1024C0008D1710F08CE0820FC15029F0D82FECCF7F
:1024D000C0E001C0CD2F8C2FDF91CF911F910895C7
:1024E000CF93C62FDBDF6C2FCF91BACF9C0123583F
:1024F0003F4F2B3F310540F0181619061CF48DE7AD
:1025000090E0089583E89FEF0895FF920F931F9343
:10251000CF93DF938A01C62FD0E08823D9F0BEDFA6
:10252000F82E8823B9F0C801E1DF2F2D30E02150CB
:10253000310945E0429FF001439FF00D1124EC0F5B
:10254000FD1FEE0FFF1FEA51FB4F855F9140918306
:10255000808305C0C801CADFCD5FDB4F888386E07A
:10256000DF91CF911F910F91FF900C944E20AF926D
:10257000BF92CF92DF92EF92FF920F931F93CF9370
:10258000DF938C017B016A01A22EB090E1019B2DAB
:102590009F7D943439F08091A50D882309F498C06B
:1025A000933479F4B19906C080916D01E801C80FA8
:1025B000D11D02C0E801219683E10E94743485E0B8
:1025C00010C0953419F0923409F088C0B19983C0D5
:1025D00080916D01E801C81BD10984E10E94743427
:1025E00084E00E94142B811168C0E114F104F9F415
:1025F00081E0C816D104D9F480E6B81619F08EE24D
:10260000B81211C01092A50DC1E00115110509F015
:10261000C0E0D0E08B2D0E94632B8EE2B81206C082
:102620001092DB0D03C0C170DD2701C0B12C4091B9
:10263000700150917101C41BD50B8091DB0D81306D
:1026400071F44091EA01B19905C084E14802A0010A
:10265000112403C0552747FD5095C40FD51FCC1634
:10266000DD0644F48B2D0E94632B83E10E947434B9
:10267000E6010AC0CE15DF053CF48B2D0E94632BCA
:1026800084E10E947434E701C017D10749F1B19980
:1026900003C08FEF80936A06209751F48B2D0E9420
:1026A000532B17FF02C083E101C084E10E94743400
:1026B0008A2D83700E944E2013C0CC27DD27C01BBB
:1026C000D10B85E00E94632B84E00E94632B8DCFA9
:1026D000953421F47BCFE80121977FCFE80185CFA6
:1026E000CE01DF91CF911F910F91FF90EF90DF907E
:1026F000CF90BF90AF900895552747FD509577270D
:1027000067FD7095992787FD909531CF22E0F4CF32
:10271000462F22E060E0F0CF462F50E022E060E05C
:1027200070E025CF21E0E8CF462F21E060E0E4CF44
:10273000E0917901F0E0EE0FFF1FE458FE4F808139
:1027400091810895E0917901F0E0EE0FFF1FE658C6
:10275000FE4F918380838FEB809378010895809161
:102760002A062AEF829FC0011124880F991F209109
:10277000690130916A012817390720F490936A01A2
:10278000809369010895E1EAFBE037A1303180F4DC
:1027900020A541E0420F40A7DF01A20FB11DA20F0B
:1027A000B11D8D939C93403108F010A63F5F37A375
:1027B000089590E08C5F9E4FE6CF90E0E4CF809349
:1027C000EC0190E04097DFCFFC019091310680A1B1
:1027D00091FF74C091A1882311F0946001C09B7F88
:1027E00091A386A1813059F5C79A37A121A133233E
:1027F00021F181A541E0480F41A7DF01A80FB11DDC
:10280000A80FB11D8D919C9195A384A3403108F030
:1028100011A6315037A397FD02C031E101C038E263
:1028200033A32C7F97FD226021A381A18BBBC79886
:102830008FE182A382E086A308952BBB48C081115B
:102840000CC0C79A81A1836081A38BBB8091CF0A02
:102850008D3308F43CC086E02FC0823009F438C0C4
:1028600081A18BBBC79ABF9800C0000000C086B38F
:102870008078BF9A96A1933049F4882329F083A1E8
:10288000815083A3811123C084E016C0943021F4C9
:102890008823E9F083E00EC0953039F483A181509C
:1028A00083A3811114C081E007C0963081F488238E
:1028B00071F084E183A385E086A309C090912E0680
:1028C00096FB992790F9891711F0C79A0895C79830
:1028D00008951BBA8FE18ABB00C099B38FEF8ABB02
:1028E000E2EEF1E08781882311F080E202C0892FB7
:1028F000807E8483292F207C8081281759F0807462
:10290000880F90783181891711F0315001C03F5FF5
:102910003183208382819381891711F0838381839E
:1029200008959091260690FD02C093E08927E82F34
:10293000F0E0EB52F24FE081E7FDE95FE595E595C8
:10294000E5951E1624F0EE2321F0E19502C080E803
:1029500001C080E0E83008F0E7E0F0E0EA57FD4F22
:10296000E491EE2319F099E0909384018E2B089561
:10297000482F833021F0882321F0E82F03C0E0E0C6
:1029800001C0E3E0F0E0EE0FFF1FE95BFE4F808146
:102990009181443080F42091430630E002C03595A7
:1029A00027954A95E2F720FF06C020E038E0A9010C
:1029B000481B590BCA010895FF920F931F93CF93A1
:1029C000DF93F12CC0E0D0E08F2DD2DF092F10E093
:1029D000C00FD11FF39484E0F812F6CFCE01DF913F
:1029E000CF911F910F91FF900895C2DF209128068B
:1029F00020FF03C09195819591090895E7E4F1E0E6
:102A000040E0842F806487B9369A3699FECF24B18E
:102A100035B1369A3699FECF84B195B1820F931FA6
:102A2000819391934F5F483061F7089578941F9296
:102A30000F920FB60F9211248F93809146018F5FF2
:102A4000809346018F910F900FBE0F901F901895A5
:102A500078941F920F920FB60F9211242F938F9399
:102A60009F93EF93FF93F89487B78F7B87BF7894FA
:102A70002091A1018091A30190913106882359F002
:102A800090FF07C08091E20F820F8093E20F87FFD3
:102A900002C01B9A01C01B9891FF2AC08091CB06EF
:102AA000811126C0E1EAFBE086A1823009F583A10D
:102AB000882311F081501BC021A1C79A82A180FDFB
:102AC00009C02D7F84A195A196FD2260880F991FD2
:102AD00095A384A381E082278BBB81A3C79882A1A1
:102AE000815082A3811104C083E086A385E083A383
:102AF000F89487B7806487BF7894FF91EF919F9196
:102B00008F912F910F900FBE0F901F901895789472
:102B10001F920F920FB60F9211242F933F934F9352
:102B20005F936F937F938F939F93AF93BF93EF9335
:102B3000FF9381B7845681BF8FE991E00E94BA323A
:102B40000E94722B0E94E66D80910D0B8260809333
:102B50000D0BE2E0F1E08081815011F0808304C030
:102B600084E6808381E081838281815011F08283B9
:102B700004C08AE0828381E08383FF91EF91BF915B
:102B8000AF919F918F917F916F915F914F913F9105
:102B90002F910F900FBE0F901F90189578941F9251
:102BA0000F920FB60F9211242F933F934F935F9381
:102BB0006F937F938F939F93AF93BF93EF93FF9305
:102BC0002091800030918100F89480917D008F7D6C
:102BD00080937D0078948091630690916406A901AA
:102BE000481B590BCA01969587953093640620932C
:102BF00063069C01215A3F402F3D3E4220F481E074
:102C0000809357012CC0E09157012FEF2E0F2830F1
:102C100030F59C012152334027373540F0F424E64B
:102C20002093EB0121E02E0F20935701F0E0EE0FEF
:102C3000FF1FEA5AFE4F9C012C5D354040912C0647
:102C4000465F429FC001439F900D11246AE070E0EF
:102C50000E94EA717183608302C010925701F89458
:102C600080917D00806280937D007894FF91EF9148
:102C7000BF91AF919F918F917F916F915F914F9194
:102C80003F912F910F900FBE0F901F90189592ECCF
:102C9000980F81E0973008F080E00895FC01808172
:102CA000882359F0843218F085520C9451378150A2
:102CB0000CDB40E060E00C94863408959C0155E004
:102CC000359527955A95E1F7280F391FAC01440F28
:102CD000452F441F550B241B350B892F990F990B3A
:102CE0008595820F931F08959DE7980F9B3F88F06D
:102CF0008E57E82FF0E0EE0FFF1FE852FB4F808168
:102D000086171CF46083862F0895481714F44083B7
:102D1000842F089544E66CE9E7CF982F8091320222
:102D200084FF03C081E0923009F080E0089549E219
:102D3000840290011124359527953595279587FDB7
:102D4000815C86FB880F880B80F9A901481B51091B
:102D500087FD5395CA0108954F925F926F927F92BB
:102D60008F929F92AF92BF92CF92DF92EF92FF929B
:102D70000F931F93CF93DF93782E642E882309F44B
:102D8000C5C086E1781621F09AEE791203C0C0C062
:102D900081E0C2C086E187150CF4BAC0872D87FD9B
:102DA00081958A3040F4825F0E94142B17140CF432
:102DB000B3C091E01BC08A50E82EF12C6701CC0C07
:102DC000DD1CE601CE0DDF1DC958DB4F8A818F70F7
:102DD00009F49EC094E0941758F4F701EC5AF94FA7
:102DE0009081917017140CF48FC081E0892794C0F2
:102DF0004880598086D9811107C08881815065DA61
:102E00008C01898194DF0EC0823041F48881815029
:102E10005CDA8C018981815058DA04C080E090E04E
:102E200000E010E02A812F70822E912CF40131975E
:102E3000EE30F10508F06EC0EA5BFF4F0C943B7278
:102E400017FF35C011950195110931C017FF33C027
:102E50001195019511092FC001E0060D402F60E08A
:102E6000842D7ADF182F402F60E0852D75DF2A81B1
:102E70002F70253061F4112309F44CC0882309F424
:102E800049C08A8182958F7059F591E031C0263012
:102E900019F41111F6CFF2CF982F91271EC0081701
:102EA0001907C1F5EECF0817190759F733C0801776
:102EB00091073CF32FC0081719071CF32BC0F6012C
:102EC000EA57FE4F91819095991F9927991F05C048
:102ED000F701EC5AF94F908191709111D2CF08C04F
:102EE00089300CF08F5F41E0460D60E035DF982FB0
:102EF0002A812F7030E02C3031050CF073CFF701B0
:102F0000EC5AF94F90836ECF892F06C0862F04C0EC
:102F100080E002C090E0ECCFDF91CF911F910F9144
:102F2000FF90EF90DF90CF90BF90AF909F908F90E9
:102F30007F906F905F904F90089540E060E08091A7
:102F400013060ADF811113C08091690190916A0113
:102F5000892B69F41092C10B8091CF0A9091690678
:102F6000981749F08093690681EA9BE02DCC81E0B7
:102F70008093C10BF1CF08951F93CF93DF9380917E
:102F8000250680FD3BC080912606817012E0181B4B
:102F900035DDE12FF0E0EE0FFF1FEE51FA4F4181DA
:102FA00052818091280680FF06C0519541955109B4
:102FB000258D368D02C027853089421B530BEA01CF
:102FC0006096812F12DDAE01612FDED9811116C00E
:102FD0006BE472E089E392E0B7D90E942D2AADD963
:102FE0000DDDABDFA895812F00DDAE01612FCCD9BF
:102FF000811104C00E948270882391F3DF91CF91E8
:103000001F9108950F931F93CF93DF93C091D00426
:103010008091250681FD4DC08C2F8873883041F04A
:10302000803131F0803221F0C77CC860C093D00479
:1030300001E0CCD9182FD82FDC2763E272E084E1BD
:1030400092E082D9D0FF03C060E082E0B5D9D1FF21
:1030500003C061E087E1B0D9D2FF03C062E08CE237
:10306000ABD98D2F887369F013FF02C063E007C0EE
:1030700014FF02C064E003C015FF03C065E081E4F3
:103080009BD9D6FF03C066E086E596D9D7FF03C07B
:1030900067E08BE691D90E942D2A01114ED91C17A9
:1030A00041F00E948270811104C047DFA89500E0C2
:1030B000C0CFDF91CF911F910F910895CF93DF93F0
:1030C000C62F20911E02222339F090932002809374
:1030D0001F02DF91CF91089560E09ED9C11103C016
:1030E0008091100601C089E10E94FC2967E182E11C
:1030F0000E947E3422D9D1E00E948270882319F088
:10310000DF91CF911AC980910D0B833019F4A895E6
:1031100010920D0BCC2319F0D093C10B02C010926A
:10312000C10B0BDFE9CF60E0C9CF9091790191111C
:1031300003C0811106C00CC0811103C08FEF890F3D
:1031400001C080E0809379018EEB8093780108952F
:1031500081EF91E0E8CFE0917901E43018F084EE5E
:1031600091E0E1CF2FEB20937801EF5FE0937901BD
:10317000F0E0EE0FFF1FE658FE4F91838083089525
:103180008111EDDA8091690190916A01009709F04F
:10319000019720916801222361F0209132064AEFC5
:1031A000249F90011124220F331F8217930708F4E4
:1031B000C90190936A0180936901BFCECF92DF92DB
:1031C000EF92FF920F931F93CF93DF938091D00ADA
:1031D0009091D10A90916806282F291B20936B01AA
:1031E0008093680660E08FE79DE00E94245C8091F8
:1031F0006B01882309F49CC28091EB01882319F0AC
:1032000081508093EB0180E09DD70E94E6250E94CB
:10321000A82A182F482F4F70E42E5AEFE50EC091C0
:103220003302C43021F0C33019F4C4E001C0C8E057
:1032300087E08E1508F48AC0812F807F803209F4E0
:1032400085C08E2D86950E946D109091420690FD4E
:1032500003C00FEF080F02C004E0081B602F80912D
:103260001A0C1CD9F82E602F3BD99C01C1110CC03F
:10327000EC0197FF04C0CC27DD27C81BD90BD595DF
:10328000C795D595C795CF5F023061F48091320222
:1032900080FF4CC281E0C2E09091280690FF03C0FD
:1032A000C19501C080E0DD27C7FDD095E0FE03C0D9
:1032B000C20FD31F04C0A9014C1B5D0BEA0120976C
:1032C00021F09D2F932797FF10C081110EC0232B53
:1032D00061F040E050E0602F8F2D17D9812F0E94C0
:1032E000632B86E10E9474341FC29E0124583F4F15
:1032F000293F310540F4AE01602F8F2D06D96C2F88
:10330000C7FF17C015C01C161D061CF44DE750E082
:1033100002C043E85FEF602F8F2DF7D8CE018358AE
:103320009F4F8B3F910508F0FFC16C2F1C160CF4CA
:10333000619567FD6D5F65956595772767FD70956C
:10334000645C7F4F85E10E947934EEC1812F8F7BD1
:1033500069F480916A06B199E3C18F3F29F08F5FCC
:10336000883C11F48FEF1DEB80936A06EEE6F1E0E6
:103370008091D30D9091D40D20813181281B390B80
:1033800037FF02C0215E3F4F65E0359527956A956E
:10339000E1F72115310561F024813581281B390BB6
:1033A00037FF02C02F5F3F4F35952795918380836C
:1033B000958384838091280685FD04C08091A10DAA
:1033C000882311F020E030E033832283C2EED1E085
:1033D0002D818981821B8F3F09F480E087FD8F5FFB
:1033E00085958887982F990F920F9D83812BC8DE32
:1033F00000913E06095FE0917901F0E0EE0FFF1FBA
:10340000E658FE4F20813181295A394509F03FC0E5
:103410008091FC0D81113BC02885222369F08E81AB
:10342000332727FD3095A901480F511D87FD5A9577
:10343000CA015CD88E831886E0919D048E2F807E11
:1034400031F1E295E695E770F0E0E430F10554F4EF
:10345000EE0FFF1FE353F24F208131813C5F60E0AC
:1034600078E00CC0EE0FFF1FEA52FB4F208133279C
:1034700027FD309523583F4F6AEF70E047E0429FA9
:10348000C001439F900D11240E94D671062F809198
:10349000EC01081711F0802F92D980912E0687FF3A
:1034A00039C0809185018823A9F180918401882306
:1034B00099F18091670687FD03C08F5F809367064F
:1034C00082E02FDA982F9F7789F020916706921774
:1034D00018F51092670611111FC0182F1095111FB3
:1034E0001127111F83E6811B182F16C083E019DAFC
:1034F000982F9F7789F020916706921768F41092B1
:103500006706111109C0182F1095111F1127111FDF
:103510001C5902C01092840181E0809385010091C2
:103520001A0CE090E801FF24E7FCF094C9EDD4E028
:103530009AE0C92ED12C6881662379F1653028F490
:103540006150802F0E94701223C0653001F1E62F78
:10355000F0E0EE0FFF1F6A3010F06D3078F4E554A4
:10356000F24F2081318137FF02C0295F3F4FC901EF
:10357000B3E095958795BA95E1F70AC0E357F24F06
:1035800080819181B6010E94EA71CB0101C0C7011F
:103590000E947612FE0131978083229654E0C73E46
:1035A000D50749F680911F02909120020097B1F053
:1035B00060E00E940C120E9482709091660699232E
:1035C00039F0811128C01092200210921F0223C0EE
:1035D000882309F181E0809366061DC0109266067B
:1035E000C0917801CC2331F01092780187E10E94DC
:1035F00074341C2F84E180936D011093E101E091FC
:103600007901F0E0EE0FFF1FE658FE4F0190F081C8
:10361000E02D812F09950E942D2AC09165008FE928
:1036200091E00E94A632882311F084E105C08091C8
:10363000E40F882321F081508093E40F06C080912D
:103640006300869581708093E30F8091E30F8093F0
:103650001D02882309F466C080912E0685FD62C094
:10366000CF7EC09365008091CF0A8F71823009F0C0
:1036700054C08091550190915601AC01F4E0440F83
:10368000551FFA95E1F797FD0796BC01E3E07595A4
:103690006795EA95E1F720911206332727FD3095CB
:1036A0002A5F3F4F629FC001639F900D729F900DF4
:1036B0001124840F951F2091280626FD05C06091D6
:1036C00000017091010102C060EF70E00E94D671AC
:1036D00080916C01680F711D6F5F7F4F75956795C5
:1036E00060936C0180916506805F8093650681110F
:1036F00014C080911106681780F4623370F06EE296
:1037000081E10E947E348091280683FF06C082E317
:1037100090E090936A01809369011092680108C05B
:1037200080E022CEC0619DCF10E013CE80E0B4CD0A
:10373000DF91CF911F910F91FF90EF90DF90CF908D
:1037400008951F93CF93DF93CEEED4E090E088816D
:1037500011E0190F882339F040E060E0FDDA88239A
:1037600011F0812F05C0912F2A96143081F780E047
:10377000DF91CF911F9108958F929F92AF92BF9248
:10378000CF92DF92EF92FF920F931F93CF93DF932D
:10379000EC01A62EB12C6501CC0CDD1CF601E35129
:1037A000FE4F008111818981882309F459C08D80E1
:1037B0009E80888181500E9465117C0189818530BD
:1037C00038F4833050F4813079F0823091F039C090
:1037D0008530A1F0863071F134C0F7FE03C0F1945A
:1037E000E194F108833029F481E08E149F043CF1C8
:1037F00025C081E0E814F90414F120C0888147DA7B
:10380000882369F08AE09701829F7001839FF00C02
:1038100011249401829F4001839F900C1124E81889
:10382000F9083FE1E30EF11C81E09FE3E916F104A2
:1038300030F004C081E0E814F90409F080E0E82EDB
:10384000F12C8A81811104C0EF2839F081E01FC07A
:1038500040E060E081DA8111F7CF00E010E016C0AF
:103860008A81882341F040E060E076DA81110BC064
:103870000FEF1FEF0CC08B81833040F09C8190765E
:1038800081E029F403C080E091E002C080E090E094
:10389000892B90910501F501E350FE4F91FD27C062
:1038A000813081F48081811105C08B818D7F11F47D
:1038B00000E010E081E08083FF24F3948B8181306D
:1038C000D1F418C08081813061F48B819FEF980F13
:1038D000923038F400E010E0823029F0FF24F394B5
:1038E00004C0F12C02C0A2E0FA2E108204C0808332
:1038F0000FEF1FEFF12C8C8187FD03C0F1100BC07F
:1039000063C088818530D0F385520E9411378823A7
:1039100009F45AC0F3CF17FF04C08B81833020F421
:1039200053C001151105D1F58C818076803211F4D8
:10393000CE01B4D98C81877089F0813051F48F2DFC
:1039400090E001972F813885820F931F0E94C31347
:1039500005C060E070E08F810E9479348C818076B0
:10396000803411F4CE019AD98C81282F287181F0EE
:10397000869586958695837090E0029724F028318D
:1039800021F48FE003C08DE001C08EE00E9474340A
:103990008B818330B8F40FEF1FEF16C0101611069D
:1039A0009CF40F5F1F4F8B8190E002974AE0489F85
:1039B0009001499F300D1124201731072CF400E0AD
:1039C00010E002C001E010E0F601E351FE4F118368
:1039D0000083DF91CF911F910F91FF90EF90DF90C7
:1039E000CF90BF90AF909F908F9008951F93CF93EB
:1039F000DF93CAE9D5E010E0612FCE01BDDE299644
:103A00001F5F1830C9F7DF91CF911F9108958F92F2
:103A10009F92AF92BF92DF92EF92FF920F931F930C
:103A2000CF93DF931092DA0D80914601C2B7909147
:103A300046018913F9CFD0E0D82B80919D048F7176
:103A400060E1D62ED81A0E94FE141EE517B90E9416
:103A50006914B4DB17B9369A3699FECF84B195B1A3
:103A60000496409100015091010167E0649F90012C
:103A7000659F300D1124820F931F53E09695879513
:103A80005A95E1F7909301018093000180910D0B0D
:103A9000833019F4A89510920D0B2091460182B73E
:103AA000909146012913F9CF90E0922B8C1B9D0B2E
:103AB00020911E0130911F012817390720F490939F
:103AC0001F0180931E0180910501882309F423C101
:103AD00080916106909162060196909362068093B0
:103AE0006106BD2CF7E1FB1508F47CC00B2D10E03E
:103AF000E801CC0FDD1FC256DB4F8FE08B1528F499
:103B0000E801CC0FDD1FCE5FDA4F8881E82EE2940A
:103B1000E69427E0E222F98095E09E1550F0EAEF66
:103B2000EF1538F4EF2DF0E0EE0FFF1FE851FD4FD9
:103B3000F0808F7109F454C040E060E00DD9A82EE8
:103B4000809105010B5F1D4F81FD48C08E2D857052
:103B500051F4F8018081811106C0AA2021F08F2D37
:103B600090E00E94C3138FEF8E0D823058F4F8015D
:103B70008081813099F5A11031C0F2E0EF122AC0A6
:103B8000F39428C085E08E1550F4F80180818111EE
:103B900025C0AA2019F189810E9451371FC0F2E087
:103BA000FE15E0F4AA20D1F084E0E81631F095E0AB
:103BB000E91631F066E970E005C06CE271E002C020
:103BC00068E572E080916106909162060E94D6716C
:103BD000892B21F48F2D90E00E94C313F801A0825D
:103BE000B39480CF07E714E0C4E58C2EC6E09C2E8A
:103BF000D6E8AD2ED1E0BD2EE12CF12CF80182816A
:103C00008F700E948110833009F03EC0F501C081A1
:103C1000D181209771F4F801C081C7FD06C0C0951D
:103C2000FAE0CF02E00111241BC0DD27C7FDD095CB
:103C300017C0D7FF14C0219699F4F701E858FB4F3D
:103C4000C081C7FD06C0CF5F8AE0C802E001112431
:103C500006C0DD27C7FDD095C095D09501C021973E
:103C6000F8018281982F907F61F082958F70893062
:103C70000CF08F5F40E060E06FD8811102C0CFEFA1
:103C8000DFEFF501D183C083F401C081F8018281A7
:103C90008F708C3091F440E060E080815DD88111BC
:103CA0000BC040E060E0F701E858FB4F808154D83A
:103CB000882319F0C0E001C0C1E0F80182818F7053
:103CC0008D30B1F440E060E0808146D8882369F00F
:103CD000C1FD0EC040E060E0F701E858FB4F808175
:103CE0003BD8882321F0C3E003C0CD7F01C0C2E0F0
:103CF000F401C1934F010D5F1F4FF3E0EF0EF11C74
:103D000082E0A80EB11C94E2E916F10409F076CF26
:103D10006DDE1092050180910301882309F47CC0B7
:103D2000209160062F5E822F8F7090E00C970CF030
:103D3000207F20936006C1E2D2E0F12CE22FE073F5
:103D4000EE2EF22FFF70BF2E822F8077A82E207FBD
:103D5000922EFD1409F457C08E0103581D4FF8012F
:103D60008081982F907C9034C1F4E11016C0880FA8
:103D7000880F40E060E0859585950E94AC16882309
:103D800061F08091310680FF05C0FE01E258FD4FD1
:103D9000808101C081E00E947434F8018081982FF5
:103DA000907C903869F5880F880F859585958731C7
:103DB000BCF08751813039F018F0823039F020C0E2
:103DC000A1101EC006C0B1101BC003C0F0E29F12BC
:103DD00017C0FE01E258FD4F80810E94513710C08C
:103DE000E1100EC040E060E00E94AC16882341F074
:103DF000FE01E258FD4F8081805890E00E94C3137D
:103E0000F3942296A6CF1092030180918401882317
:103E100019F0815080938401DF91CF911F910F9110
:103E2000FF90EF90DF90BF90AF909F908F9008959C
:103E30001F93CF93DF93EC011AE088810E945D43CA
:103E40000E946D4389931150C1F7DF91CF911F916B
:103E500008959C01265F3F4FFB014491DC014D9387
:103E6000CD013196A217B307C1F70895E3EEF5E04F
:103E700080E090E021913191820F931F25E0EB3F8C
:103E8000F207C1F7089582E7E2EEF5E0DF011D9247
:103E90008A95E9F78BE08093E20589E1809310062B
:103EA0008AE58093110681E080932606E3EEF5E033
:103EB00020E032E080E093E021933193958784877E
:103EC000938F828FB5E0E13FFB07B1F766EE77E0B5
:103ED00083E396E0BEDFCADF90930E0680930D0663
:103EE0000895EF920F931F93CF93C82F21EC33E0E7
:103EF000E1E2F2E0DF01C9011D920197E9F76BED04
:103F000077E0CF01A6DF8C2F90E06AE070E00196A9
:103F10000E94EA71605D60932602805D80932702B3
:103F200083E08093110582E08093330280E00E9459
:103F30005C2C61E06C0F88ECE82E01EC13E021E2D0
:103F400032E042E08EE796E0BED5CF911F910F910F
:103F5000EF9008950F931F93CF93DF93EB01042FFE
:103F6000803120F561E0680F8EE796E0FDD310E028
:103F7000A80160E270E0CE010E94A6724AE050E023
:103F8000BE018EE796E073D40A9781F48EE796E03F
:103F9000DDD3C00FD11F009749F06AE070E00E94A6
:103FA000EA71805D8A93862F972FF5CFDF91CF91AD
:103FB0001F910F9108958F5F81C3FF920F931F93FD
:103FC000CF93DF93CDB7DEB72F970FB6F894DEBF50
:103FD0000FBECDBF01E0080F102F1031B0F4FF2449
:103FE000F394F10E8F2D6AD381110DC0602F8EE7EF
:103FF00096E0BAD361E0610F28E532E042E085E760
:1040000096E011D506C01F2DE8CF103179F780E07A
:1040100017C04FE050E0BE016F5F7F4F8EE796E024
:10402000C0D3882349F0482FBE016F5F7F4F85E7DB
:1040300096E080D4A895EDCF85E796E01AD581E08B
:104040002F960FB6F894DEBF0FBECDBFDF91CF9194
:104050001F910F91FF900895EF920F931F9361E0CE
:1040600083EA97E02BD881E997E00E942E12EAD2EA
:1040700098ECE92E02E710E022EE35E041E060E046
:104080008EE796E020D58237910519F082E897E017
:104090004AD880E01F910F91EF9023CFCF93C82F84
:1040A0008770A1F090918906982B909389060E94C1
:1040B0007A1090938806809387068C2F90E024E0F6
:1040C000959587952A95E1F780938A06CF91089573
:1040D000CF93DF93D9D2811102C080E030C052D299
:1040E00087FDFBCF60E08EE796E03ED382E7E2EE0D
:1040F000F5E0DF011D928A95E9F742E750E0BF0144
:104100008EE796E0B4D383E396E092DE8091E205F9
:104110008B3050F480919E01816080939E018BE0F2
:104120008093E20581E0BADFC0910D06D0910E06C2
:104130009DDE21E0C817D90709F020E0822FDF912A
:10414000CF910895EF920F931F93CF93DF93109227
:10415000CC06C0918906CC2309F498C090918A06B8
:104160009F5C9093CC0681111CC00E947A10209114
:10417000870630918806821B930B883C910508F4D2
:1041800085C080918A06882361F0815080938A06D9
:10419000882339F00E947A109093880680938706CE
:1041A00075C010928A0680916B0681116FC0DC2F5A
:1041B000D470C2FD02C081E001C083E080936B0631
:1041C000C0FF2CC082E38093CC06809189068E7F4D
:1041D0008093890644E1E42E02E710E022EE35E008
:1041E00041E061E18CE696E06ED48237910519F4E6
:1041F00061E180E02FC080917206823051F480919D
:104200008906816030C080917206823029F1D11117
:104210003BC081EF97E00E94931836C0C1FF34C0C5
:1042200083E38093CC0680918906897F80938906F9
:1042300034E1E32E01EC13E021E232E042E061E1FF
:104240008CE696E040D4813C9340E9F680910F06DD
:1042500061E18F5F41D218C080918906D11102C0FF
:10426000826001C08660809389060E947A10885C13
:104270009109909388068093870680910D0B833077
:1042800019F4A89510920D0B10926B06DF91CF9147
:104290001F910F91EF90089580918906882351F026
:1042A00081E050DF80910D0B8330B1F7A89510921B
:1042B0000D0BF2CF0895EF92FF920F931F93CF93C0
:1042C000DF93C82F803108F0C3C061E0680F8EE72C
:1042D00096E04AD221EC33E0E1E2F2E0DF01C901ED
:1042E0001D920197E9F741EC53E0BF018EE796E09C
:1042F000BED28F3F910509F010F48C2FF2DD81E2E0
:1043000092E096DD8091C904811107C0809132024C
:10431000869583708E5F8093C904809111058230E9
:1043200008F061C010E0812F0E948710EC018981A4
:104330008150843018F40E946D1089831F5F103201
:1043400091F7C7E7D4E000E010E08A818F700E9407
:104350008110882381F08230B9F4D801A858BB4F6E
:104360007D018C91882339F085302CF481500E9496
:104370006D10F70180838881882331F0853024F423
:1043800081500E946D10888323960D5F1F4F043269
:104390001105D9F688E3EBECF3E0A0E0BEE0019074
:1043A0000D928A95E1F7C0E0DEE010E00EE0812F8B
:1043B0000E946D108150089FD0011124A553BC4F5D
:1043C000FE01802F01900D928A95E1F71F5F2E96D6
:1043D000143069F786EC97E00E94931882E080938E
:1043E00011055CDE59DF809111058330F8F480E01F
:1043F00090E0FC01E958FB4F2281322F3F703C30A6
:1044000019F4207F2A6022832281322F3F703D30B1
:1044100019F4207F2B60228303968432910549F79B
:1044200083E08093110582E039DE36DF809111054B
:10443000843070F480913D068093D00483EB97E044
:104440000E94931884E08093110582E027DE24DF28
:10445000E7EDF1E080912C02828380919C048383BC
:1044600080912E0290912F029183808380912D0262
:10447000817084838091CE0487838091CF0480876C
:104480008091CC049091CD04968385838091920590
:1044900087FB882780F981870E94D74B0E94DD4BDC
:1044A000DF91CF911F910F91FF90EF90089540E41D
:1044B00050E060E070E08BE896E00C94702A41E0F8
:1044C00050E062E070E08DE896E00C94702ACF93A3
:1044D000DF931F92CDB7DEB7698390E1899FB0016A
:1044E000112441E050E0CE010196FAD70F90DF9100
:1044F000CF910895CF93DF931F92CDB7DEB790E1B0
:10450000899FB001112441E050E0CE0101960E9444
:10451000C37289810F90DF91CF910895CF93DF937C
:10452000D82FC82F8C2FE6DF882321F08C2FE2DFD5
:10453000C82FF8CF60918D068C2FC9DFD0938D06E0
:10454000DF91CF91BCCFCF93C0918D06CC2341F0AA
:104550008C2FD0DF80938D06B2DF60E08C2FB7DF29
:104560008C2FCF910895CF93DF9380918D06C0E07B
:10457000D0E0882319F02F96BDDFFBCFCE01DF916D
:10458000CF910895DF92EF92FF920F931F93CF93F5
:10459000DF9380E8E1E2F2E0DF011D928A95E9F71E
:1045A000CFE8D6E0F12CB4E1FB1205C080918D0676
:1045B0000DE816E002C08E01888190E0E12CDD2438
:1045C000D394DF0C0097E9F09C01245031092C377B
:1045D000310530F4FC01EF5DFD4F2081222361F0B5
:1045E000EE2021F060E08E2D72DF03C0F801108212
:1045F0005EDF80E090E0E6CFD082E82E7BDF90E0C7
:10460000E1CFF3942396F5E1FF12CDCFC4E0D0E0E3
:10461000FE01EF5DFD4F8081811107C060918D0625
:104620008C2F55DFC0938D064ADF2196C038D10507
:1046300079F780E0DF91CF911F910F91FF90EF907C
:10464000DF900895CF9380E4EBE8F6E0DF01982F48
:104650001D929A95E9F794E090938B0680938C06CF
:1046600080E180938E0684E0C1E0C80F6C2F2FDFBD
:10467000CF3711F08C2FF8CF60E08FE728DF84E090
:1046800080938D06CF9113CF40E450E060E070E05E
:104690008BE896E00E94C37280918C06811103C062
:1046A00080E480938C0680918B06843029F481E02D
:1046B00090918C06903409F080E0089590E0FC0120
:1046C000EE0FFF1FE80FF91FE557F94F81E09481C6
:1046D000911101C080E00895CF93DF9390E0EC0149
:1046E000CC0FDD1FC80FD91FC557D94F8C819D81B5
:1046F000AE8170E0FB01EE0FFF1FE60FF71FE557DD
:10470000F94F2481358146812C833D834E838483F8
:104710009583A683DF91CF91CACECF9390E09C0181
:10472000220F331F280F391FF901E557F94FC481B4
:10473000F901E157F94F108211821282B8DECC23C1
:1047400019F08C2FCF91EACECF910895FC01808192
:1047500090E0FC01EE0FFF1FE80FF91FE057F94F43
:10476000918180819F700895CF93DF93FC016083D6
:104770001282118270E0CB01880F991F860F971F5C
:10478000EC01C557D94F2C812383148215821682E0
:10479000FC01EF56F94F808182958F70DF91CF91A8
:1047A0000895AF92BF92CF92DF92EF92FF920F9354
:1047B0001F93CF93DF931F92CDB7DEB78C01FC011F
:1047C000808190E0FC01EE0FFF1FE80FF91FE0571A
:1047D000F94F80812181922F9F70F80121813281D0
:1047E000821B930B7A018417950708F47C015B0107
:1047F0006701C114D10421F1F8018381882301F1FB
:1048000064816F5F648370E0F0E18F9F600D711DC4
:10481000112441E050E0CE0101960E94C3728981CB
:10482000F50181935F01F80184818F3028F01482B3
:10483000838160DEF8018383F1E0CF1AD108D9CFFC
:10484000F801818192818E0D9F1D8C199D099283A3
:1048500081838E2D8C190F90DF91CF911F910F9135
:10486000FF90EF90DF90CF90BF90AF9008957F9230
:104870008F929F92AF92BF92CF92DF92EF92FF9270
:104880000F931F93CF93DF934C016B018A01C0E01C
:10489000D0E05C0125E0A20EB11CC017D107D8F50D
:1048A000F40185818F7781F0F4014581F42FFF7742
:1048B0007F2E2F2F30E0C8018C1B9D0B8217930792
:1048C00058F4702E7C1A08C041E050E0B501C401D4
:1048D00068DF813049F31FC0E72CF12CC6018C0F33
:1048E0009D1F47FF06C0A70160E070E00E94A6720E
:1048F0000BC0A701BC01C40154DF871529F0FE01DC
:10490000E80FF11DCF0108C0CE0DDF1DF401858138
:1049100087198583C2CFCE01DF91CF911F910F916F
:10492000FF90EF90DF90CF90BF90AF909F908F90CF
:104930007F900895AF92BF92CF92DF92EF92FF9255
:104940000F931F93CF93DF93EC018B01D42E8B81B8
:10495000811110C089819A81892B61F4E880F12C42
:10496000F2DD8B83F701EE0FFF1FEE0DFF1DE55704
:10497000F94F8483CD2C8FE0A82ECC2009F43CC0C5
:10498000EF80F8840E947A10E81AF90AF7FE02C054
:1049900082E004C08B81811103C081E08E832CC032
:1049A0009C819F3058F01C82A5DD811104C0CBDDB5
:1049B000682F8B818CDD8B819DDD8B838B818823A0
:1049C00061F36C819A2D961BBC2C9C1508F4B92EB2
:1049D000EB2CF12C70E090E1899F600D711D11248A
:1049E0006F5F7F4FA701C8017BD50E0D1F1D8C8106
:1049F0008B0D8C83CB18C1CF6D2D70E06C197109B4
:104A000029813A81260F371F3A8329838D2D8C19EE
:104A1000DF91CF911F910F91FF90EF90DF90CF909A
:104A2000BF90AF900895EF92FF920F931F93CF9393
:104A3000DF93EC01F62EE42E890196DE6F2D70E0F7
:104A4000FB01EE0FFF1FE60FF71FE057F94F108233
:104A5000E29430EFE322E1820E947A10800F911FEE
:104A600098878F83DF91CF911F910F91FF90EF90E7
:104A700008951F93CF93DF93EC01888190E0FC01B0
:104A8000EE0FFF1FE80FF91FE057F94F8981808370
:104A90009A819F708181807F892B81838B8188237C
:104AA00021F028DD182F81110AC010E000DD11234C
:104AB00011F0812F33DDDF91CF911F91089560E0D8
:104AC0008B8105DDF3CF7F928F929F92AF92BF9241
:104AD000CF92DF92EF92FF920F931F93CF93DF93CA
:104AE0001F92CDB7DEB76C0159012E2D30E09BDF50
:104AF00019824501E12CF12C77247394F401819102
:104B00004F019981811108C071104CC080818111C1
:104B100005C0772473941BC071100AC080E09F37D2
:104B200018F4E016F10661F5772081F0782E01C0C7
:104B3000712C992329F19068998341E0BE016F5F40
:104B40007F4FC601F7DE8130D1F026C0782E992341
:104B5000B9F041E0BE016F5F7F4FC601EBDE8130EF
:104B6000D9F44981B701641B71096A0D7B1DC60127
:104B7000E1DE9981891719F0981B99830DC019827C
:104B800089818F5F8983A895FFEFEF1AFF0A0E15C1
:104B90001F0508F0B3CF08C089818F778701081BF4
:104BA000110902C0872DBBCFC60163DFC8010F907A
:104BB000DF91CF911F910F91FF90EF90DF90CF90F9
:104BC000BF90AF909F908F907F90089580E094E089
:104BD000EEECF6E0DF019C011D9221503040E1F740
:104BE0000895FF920F931F93CF93DF93FA011491CF
:104BF00031967491795F769576957695DA0113966C
:104C000031964491249FA00DB11D1124669566959F
:104C1000669590E0F0E86F9F800D911D112420E0D3
:104C200030E060E08253994F412F50E0671799F0D0
:104C30000A2FEC01C20FD31FFD01FE2EF01AF11650
:104C400020F4F490F9923196F8CFA40FB51F6F5F5E
:104C500020583F4FEBCFDF91CF911F910F91FF90E5
:104C60000895CF93DF93382F46312CF4842F880F8B
:104C7000840F880F84C086E0830F20FD08C021FDCB
:104C800002C090E005C09091CF0A96FFFACF91E064
:104C9000687FA32FB0E050E1659FA00DB11D1124E6
:104CA000A253B94F22FF3EC04E3211F08CE0830F69
:104CB00024ED240F2F3010F44B5211C02FEB240F92
:104CC0002A3110F441530BC02FE9240F2A3110F47C
:104CD000465305C04F3511F44AE201C040E064E19B
:104CE000469FA0011124455F574F2BE022302CF046
:104CF000FA0134913A96E49102C030E0E0E04F5F6F
:104D00005F4F992311F03095E095FAE0AD34BF077D
:104D100030F43C93ED01C058DF4FE88311962150E9
:104D200028F72DC023FF07C0892F81958D9385E03B
:104D3000830F31E001C030E0552747FD50954052C8
:104D4000510925E0249FF001259FF00D1124E15920
:104D5000F24F4491332311F0243039F05AE0AE3C45
:104D6000B50718F4911140954D93215031962111BA
:104D7000F0CF6AE0AE3CB60710F491959C93DF91BA
:104D8000CF91089520E06DCFEF92FF920F931F9384
:104D9000CF93DF93F62E122F902F9071E92EFA0108
:104DA000112379F0EE2011F0408101C04491EF0110
:104DB0002196442331F0202F6F2D53DF1150FE0137
:104DC000EFCFDF91CF911F910F91FF90EF9008955A
:104DD0000F93FA0194914F5F5F4F929F400D511DC9
:104DE0001124292FD1DF0F9108950F9300E0CCDF1C
:104DF0000F910895FF920F931F93CF93DF93162F78
:104E0000022F922F9071F92EEA01FF2011F04881B4
:104E100002C0FE014491442361F04F3131F4185F28
:104E2000103438F480E02196F0CF202F612F19DF65
:104E3000FACFDF91CF911F910F91FF900895AB01B1
:104E400020E0682F80E0D6CFFB01442341F094910D
:104E5000992351F09F3109F441503196F6CF20E06B
:104E6000AF01682F80E0C6CF089520E0C3CFFF9246
:104E70000F931F93CF93DF93082FF62EEA0114E1CF
:104E8000180F15504C2F4F704A301CF0495C28E029
:104E900002C0405D20E06F2D812FE3DE84E0D695D7
:104EA000C7958A95E1F71013ECCFDF91CF911F9151
:104EB0000F91FF900895222321F09091CF0A96FD43
:104EC0000895480F687FE82FF0E090E1699FE00DBA
:104ED000F11D1124E253F94F8E1B982F9E0F94174A
:104EE00020F4908190959193F8CF08952AE08E3C1C
:104EF000920760F4FC0120813091CD06332319F034
:104F0000262B313009F02627FC0120830895262F17
:104F1000287F6770E62FF0E0E15BF04F649190E04E
:104F200030E1239F800D911D11248253994FDECFD4
:104F3000EF92FF920F931F93CF93DF93F42E47FFCF
:104F400002C0840FF194962F987FC82FD0E080E1A3
:104F5000989FC00DD11D1124C253D94F6770E62F01
:104F6000F0E0E15BF04FE490FF20B1F08AE0CE3C4E
:104F7000D80790F4022F10E020FF08C06E2DCE015C
:104F8000B5DF15950795202F206803C01595079567
:104F9000202FFA942196E8CFDF91CF911F910F91A6
:104FA000FF90EF9008952FEFC3CF1F93CF93DF9320
:104FB000142F47FF02C0640F1195962F987FC82FBA
:104FC000D0E080E1989FC00DD11D1124C253D94F6C
:104FD000862F877099F0E82FF0E0E15BF04F649145
:104FE0006195180F185017FF0DC0E12FFF27E7FD3F
:104FF000F095E95AF04FE4916E0F04C018303CF080
:1050000018506FEFCE0172DFC058DF4FF7CF111687
:1050100054F4E12FFF27E7FDF095E15BF04F649139
:105020006150CE0163DFDF91CF911F9108953F92D0
:105030004F925F926F927F928F929F92AF92BF92A8
:10504000CF92DF92EF92FF920F931F93CF93DF9354
:10505000182FB62E802F05FF04C004FF04C002E005
:1050600003C000E001C001E0982F9F77C92EE7FE42
:1050700004C0E1946624639401C0612C57FF0AC008
:1050800050954095309521953F4F4F4F5F4F772476
:10509000739401C0712C82FF06C09CE09093CE0AED
:1050A000EAE0DE2E05C096E09093CE0A75E0D72E9A
:1050B00086FF28C071101D0D283E83E0380741058A
:1050C000510514F01D0D05C024363105410551056B
:1050D00014F01D0D05C02A303105410551050CF0B5
:1050E0001D0D002381F0023031F4243631054105D5
:1050F00051054CF41D0D2A303105410551051CF4B4
:105100001D0D01C01D198091CE0A810F8093CE0A1A
:10511000023011F490EFC90E8824839452E0952E4A
:10512000A12CFF24E7FCF09466E0562E5B0CE82DE2
:10513000F0E0EE16FF060CF45DC06AE070E0C90115
:105140000E94EA71382EEB0140E3442E480E2C2DCC
:10515000442D6B2D812F85DD08112FC0C2FE1AC092
:105160008FEF830D833008F49394CE016AE070E0F2
:105170000E94EA71823011F08430D9F484E348123D
:1051800004C0AA24A394A10E15C0AA24AA94A10E17
:10519000939410C03EEF432E410E8FEF810FC0FE5F
:1051A00004C047E06B2D01DF02C0652DB0DE142D79
:1051B00001C0A12E209709F000E09E01442737FD91
:1051C0004095542F211531054105510581F40023E7
:1051D00031F0023059F491E0981540F008C0C4FE57
:1051E00009C0611004C080EFC80E01C000E01D19A5
:1051F00083949DCFAA2051F0492D6CE06B0D8A2D30
:10520000D2DE492D6DE06B0D8A2DCDDE772031F099
:105210002C2D4DE26B2D812F8D1923DD80E0DF9148
:10522000CF911F910F91FF90EF90DF90CF90BF90A3
:10523000AF909F908F907F906F905F904F903F9036
:105240000895EF920F93022F9A01442737FD40955E
:10525000542FF5E0EF2EEBDE0F91EF900895CF93F2
:10526000DF93D62FC22F206250E0EBDFC7FD08C0CE
:105270002C2F46E76D2F8091CE0ADF91CF91F1CC94
:10528000DF91CF910895242F40916C01E8CF20E069
:10529000D8CFEF920F93022F005F242F30E040E031
:1052A00050E0A2E0EA2EC3DE0F91EF900895DF9266
:1052B000EF92FF920F931F93CF93DF93182FF62E49
:1052C000EA01E22E822F8470D82E57FF0FC0882368
:1052D00011F08CE101C08FE02E2D4DE26F2D912F4A
:1052E000981B892FBEDCD195C195D1092E2D202385
:1052F0004AE36F2D812FB5DC6CE370E0CE010E9494
:10530000EA71462FC82F2E2D6F2D812FC2DFDD2091
:1053100011F08AE101C08FE0202F4C2F6F2D810FFB
:10532000DF91CF911F910F91FF90EF90DF90B1CF60
:10533000FF920F931F93CF93DF93182FC62F042F45
:10534000D22FF090CD0681E08093CD06422F812FA1
:105350002CDE023030F04D2F6C2F8FEF800F810F3D
:1053600024DE02501F5F6FEF6C0F6D0F402F812FF7
:105370001ADE402F6C2F812F16DEF092CD06DF91C2
:10538000CF911F910F91FF9008950F931F93CF938B
:10539000DF93182FC62FD22FE42FF0E03297053677
:1053A00008F004E60E9FC0010F9F900D112464E6E3
:1053B00070E00E94EA71062F2D2F6C2F812FB8DF2D
:1053C000002361F0D150DC0FCF5F1F5FCD1730F4A9
:1053D000402F6C2F812FE7DDCF5FF8CFDF91CF918A
:1053E0001F910F910895A998AB98AC988BBBAD9A7B
:1053F000AD98AB9AA99A0895CF93C82F81E0809376
:10540000CB0681E8F0DF8C2FEEDF1092CB06CF9138
:10541000089580911006F0CFCF93DF9381E08093C1
:10542000CB06AA982AE02A95F1F700C0AA9A8CED3B
:1054300095E0E5E0EA95F1F7000001970097C9F7DC
:10544000C1E0D8E0FE018491CEDF2196F8E0CB30B8
:10545000DF07C1F7DF91CF91DCCF1F93CF93DF93AD
:105460004091CC06442321F08091CF0A86FD33C0C1
:1054700081E08093CB0610EBCEECD6E084E0B3DF86
:1054800080E1B1DF812FAFDFA998AB9AAC98FE0124
:105490009E0120583F4F80818BBBAD9AAD98818192
:1054A0008BBBAD9AAD9882818BBBAD9AAD98838151
:1054B0008BBBAD9AAD983496E217F30761F7EF0115
:1054C000AB9AA99A1F5F183BC9F61092CB06DF91E1
:1054D000CF911F9108954A5260E080E064DDC8CF0B
:1054E000BF92CF92DF92EF92FF920F931F93CF93D1
:1054F000DF937B018A01080F191FEC01E81AF90AF2
:105500006701CC0EDD1EC017D107C1F0B9908091A4
:105510006B068270E19B05C08823E1F30E94071DA2
:10552000F6CFDFBACEBAE09A8DB3B81649F3BDBA5A
:105530008FB7F894E29AE19A8FBFE2CFDF91CF91D3
:105540001F910F91FF90EF90DF90CF90BF90089543
:105550008091FF0A1092FF0A0895FC0180818F70EC
:10556000880F611181608F709081907F982B90835C
:1055700081818F5F81838281882351F09F7041F404
:10558000833621F0842F80628093FF0A1182128279
:105590008281883069F148F4813091F188F082305D
:1055A00039F1843009F03FC023C08F35C1F018F4C1
:1055B0008031F1F00895813649F0823671F1089515
:1055C00080818F708F3079F581E62BC040664093E3
:1055D000FF0A10922E0D10922D0D8FE522C08181B1
:1055E000803211F4406816C08832E9F480E119C0B5
:1055F0009181903328F090E0959587958283118270
:10560000828190E00197218130E082239323892BCE
:1056100051F440644093FF0A08958181803418F06A
:1056200088E082831182089540916300282F30E042
:105630002F3031056CF4F901EE0FFF1FE20FF31F5D
:10564000EE52F54F90819F7081E09F3051F52AC056
:1056500090E0FC013F97E930F10518F5EC5AFF4F57
:105660000C943B7291B1947019C093B3907816C0AA
:10567000942F917013C0942F909598700FC043FF92
:1056800010C091B102C091B19095907407C091B1D2
:10569000907104C093B3F9CF91B1907281E09111F0
:1056A00001C080E008958F7090E08F30910551F037
:1056B000FC01EE0FFF1FE80FF91FEE52F54F82E6D7
:1056C0008283118208958F7090E08F30910549F0A8
:1056D000FC01EE0FFF1FE80FF91FEE52F54F83E6B6
:1056E00082830895EF92FF920F931F93CF93DF93DE
:1056F0008091D00A9091D10A01969093D10A80931B
:10570000D00A8093CF0A96B390958091000B88239E
:1057100021F0282F2877292349F4892F807609F052
:105720004DC093FD47C094FF47C080E1182F16601D
:1057300019238093000BC2EDDAE0F12C11FB6627F0
:1057400060F94F2DCE0109DFF3941695239686E07C
:10575000F812F4CFE0B2E094C7E5DFE000E010E03B
:10576000FC1AFE0184914C2F4F0D8E2161E009F44B
:1057700060E0C8018C51954FF0DE21960D5F1F4F00
:105780000831110571F79091E60161E0C92FC072EF
:1057900095FF60E04EE08CEF9AE0DFDE86B390E0AC
:1057A000809590958E7799278C2B51F089E0809386
:1057B000840106C088E0BACF80E0B8CF80E6B6CFDB
:1057C000DF91CF911F910F91FF90EF90089595E099
:1057D000899FD0011124A95FBB4FCB010596FB0126
:1057E00024912D933196E817F907D1F708950F9377
:1057F0001F93CF93DF93182FCBE3D2E090E0888103
:10580000181738F0882329F0903201F19F5F2A960B
:10581000F6CF9032D9F02FE130E0291B31090AE0B0
:10582000029FA001039F500D1124BE01CE010A96D4
:105830000E949572FE0111920A95E9F7188384E699
:105840008A838F8188608F83CE0102C08BE392E0D0
:10585000DF91CF911F910F91089580E491E0EBE3E8
:10586000F2E0DF019C011D9221503040E1F70895E4
:1058700088E2E7E0F4E0DF011D928A95E9F788E429
:10588000EFE2F4E0DF011D928A95E9F7089590E0D8
:105890000197FC01EE0FFF1FE80FF91FE958FB4FBE
:1058A0006F706283408321830895CF93C62F9FDF5B
:1058B000FC01C183CF9108959F92AF92BF92CF9286
:1058C000DF92EF92FF920F931F93CF93DF9300D05D
:1058D00000D0CDB7DEB7182F19821A821B821C8226
:1058E000E0912B06F0E0E15FFC4F46E050E001E084
:1058F000F42E81E090E0249130E00F2C02C0359529
:1059000027950A94E2F723703327B9016F5F7F4F21
:105910006817790741F461E070E06C0F7D1F260F76
:10592000371FD9010C9301968530910521F70F5F40
:10593000425051090530E1F611110DC08EDF61E0D2
:105940008981B3DF62E08A81B0DF63E08B81ADDF04
:1059500064E08C812BC0113041F4EB81F0E0EE0F5C
:10596000FF1FE456FB4F10830AC0123059F4EB813D
:10597000F0E0EE0FFF1FE456FB4F81EC80838CE9D3
:1059800081831AC11330A1F468DF198161E0812F8E
:105990008CDF812F2CDF22E0FC0121832CE9228384
:1059A0001A8161E0812F81DF62E0812F7EDF04C1F7
:1059B000143099F452DF0A8162E0802F76DF64E0D0
:1059C000802F73DF0C8162E0802F6FDF802F0FDF6D
:1059D000FC0111832CE92283EFC0153009F092C03D
:1059E0003CDF46DF81E003DF5AE0C52EFC01C182C7
:1059F00082E0FDDE6BE0D62EFC01D18283E0F7DE93
:105A00007CE0F72EFC01F18261E084E04EDF85E06E
:105A1000EEDEFC0103E00183A4E0BA2EB38287E04E
:105A2000848387818160878385E0E1DEFC010183D7
:105A30001383B8E09B2E948287818160878385E001
:105A4000D6DEFC01018386E0E82EE38299E0A92EF0
:105A5000A48287818160878385E0C9DEFC01918211
:105A60008CE9828381E083838781897F8460878357
:105A700086E0BDDEFC01A1828EE1828388EF838314
:105A80008BE0B5DEFC01018326E4A22EA282B38264
:105A9000C4828781816087838BE0A9DEFC0101835A
:105AA000A2821383D4828781816087838BE09FDE0B
:105AB000FC010183A282E382F48287818160878373
:105AC000809137028F718062809337028FE18093DB
:105AD000380263E77FE080E07ADE6EE67FE081E017
